:100000000C9435000C9466000C9466000C94660009
:100010000C9466000C9466000C9466000C946600C8
:100020000C9466000C9466000C9466000C94960088
:100030000C9466000C9466000C9466000C946600A8
:100040000C94B70E0C9466000C94F1100C943411BF
:100050000C9466000C9466000C9466000C94660088
:100060000C9466000C946600F01111241FBECFEFB3
:10007000D8E0DEBFCDBF14BE88E10FB6F894809300
:100080006000109260000FBE12E0A0E0B1E0E8E571
:10009000F1E302C005900D92A23AB107D9F713E03F
:1000A000A2EAB2E001C01D92A837B107E1F710E063
:1000B000CAE6D0E004C02297FE010E941D18C8368F
:1000C000D107C9F70E948E0F0C94AA180C94000057
:1000D0001092A9021092A80284E690E09093A702E1
:1000E0008093A60281E090E09093A5028093A40201
:1000F00008952091A2023091A302C901089584B10C
:100100008F6384B9E091A802F091A902EA5FFE4FE3
:10011000808185B908957093A7026093A60208951F
:100120002091A6023091A702C90108951F920F9253
:100130000FB60F9211245F936F937F938F939F93CA
:10014000AF93BF93EF93FF938091A8029091A90280
:1001500001969093A9028093A80266E070E00E9445
:10016000AA179093A9028093A802E091A802F091A7
:10017000A902EA5FFE4F808185B9FF91EF91BF919F
:10018000AF919F918F917F916F915F910F900FBE73
:100190000F901F901895E091C902F091CA0201904A
:1001A000F081E02D89EC92E0099489EC92E00C94C6
:1001B000561089EC92E00E94851008950F931F93CA
:1001C000CF93DF93CDB7DEB72E970FB6F894DEBF8F
:1001D0000FBECDBF8C0164EA71E00E94B712D80156
:1001E0001C961C921E921B9764EA71E0C8010E9443
:1001F000F51264E170E0C8010E947712F8011086E0
:10020000178283E090E00E947D0DFC01D8011A96D0
:100210009C938E9319978AE080831996ED91FC91B7
:100220001A971282118282E090E00E948C0F8C015A
:1002300086E691E0F8019183808340E855E260E032
:1002400070E089EC92E00E946F111093AB02009372
:10025000AA026CE071E0CE0101960E94B712BE01C5
:100260006F5F7F4F89EC92E00E94D90FCE0101961B
:100270000E94461260E972E089EC92E00E940F1041
:100280004AE068E170E0CE0101960E943C13BE0195
:100290006F5F7F4F89EC92E00E94D90FCE010196EB
:1002A0000E94461261E271E089EC92E00E940F1018
:1002B00065E271E0CE0101960E94B712BE016F5F48
:1002C0007F4FCE0108960E94EB1265E571E0CE01EA
:1002D00008960E941B14BC0189EC92E00E942E102B
:1002E000CE0108960E944612CE0101960E94461247
:1002F0008091AA029091AB02892BA9F16CE071E088
:10030000CE0101960E94B712BE016F5F7F4F89EC4C
:1003100092E00E94D90FCE0101960E94461260E938
:1003200072E089EC92E00E940F104AE06BE170E00D
:10033000CE0101960E943C13BE016F5F7F4F89EC96
:1003400092E00E94D90FCE0101960E94461261E20E
:1003500071E089EC92E00E940F1060E471E089EC9A
:1003600092E00E9442102E960FB6F894DEBF0FBEA8
:10037000CDBFDF91CF911F910F9108952F923F92A2
:100380004F925F926F927F928F929F92AF92BF92A5
:10039000CF92DF92EF92FF920F931F93CF93DF9351
:1003A000CDB7DEB78C01ADB6BEB6782E612E8824EF
:1003B0008394912C68C08091AA029091AB02DC01D9
:1003C000ED91FC910190F081E02D0995F82E682FB8
:1003D000872D962D0E94C313BAE0FB1254C03DB680
:1003E0002EB6F801848195819487838701972DB774
:1003F0003EB7281B390B0FB6F8943EBF0FBE2DBF7A
:100400008DB79EB701962C017C01CC24C394D12CCE
:100410000DC0B601872D962D0E944914DC018C91E8
:10042000F70181937F01FFEFCF1ADF0AD8011B96F6
:100430008D919C911C970197C816D90654F3199673
:10044000ED90FC901A9760E070E0872D962D0E9449
:100450004914FC018081D7018C93C2010E942D18A0
:10046000D8011996ED91FC911A9792838183189681
:100470009C928E9217979101832F922D0FB6F8942C
:100480009EBF0FBE8DBF8091AA029091AB02DC018E
:10049000ED91FC910480F581E02D0995892B09F0FF
:1004A0008ACF0FB6F894BEBE0FBEADBEDF91CF911E
:1004B0001F910F91FF90EF90DF90CF90BF90AF9082
:1004C0009F908F907F906F905F904F903F902F9074
:1004D0000895FF920F931F93CF93DF93EC0183E076
:1004E00090E00E947D0DF92E082F192FE985FA85DD
:1004F0008081F8018083E985FA8581819281F80104
:100500009283818364EA71E0CE010E94F51218861D
:100510001F82E985FA858AE08083E985FA8512825F
:100520001182802F9F2DDF91CF911F910F91FF900E
:100530000895FC01878190850895DC01ED91FC917F
:10054000119718966D917C9119970084F185E02D93
:10055000099580E090E00895DC01ED91FC91008424
:10056000F185E02D099580E090E00895FC018085FB
:1005700091850895DC0177FD1BC012968D919C91A9
:10058000139768177907A1F013967C936E931297CF
:100590007093890060938800ED91FC9111971496F7
:1005A0006D917C9115970680F781E02DCD0109941E
:1005B0008FEF9FEF0895FC01828193810895FC01E4
:1005C000848195810895DC01ED91FC911197189635
:1005D0006D917C9119970084F185E02D099580E05B
:1005E00090E00895DC01ED91FC910084F185E02D0F
:1005F000099580E090E00895FC018085918508953B
:10060000DC016F3F7105C0F412968D919C91139798
:100610006817790789F013967C936E93129767BDDC
:10062000ED91FC91119714966D917C911597068030
:10063000F781E02DCD0109948FEF9FEF0895FC0124
:10064000828193810895FC01848195810895AF9200
:10065000BF92CF92DF92EF92FF920F931F93CF93AF
:10066000DF93EC016436710540F57D836C83882748
:1006700077FD8095982F4A815B818A01222717FD9B
:100680002095322F3F932F931F930F93A12CB12CC2
:10069000650114E6E12EF12C00E010E020E030E0EE
:1006A000A9010E946D146E837F8368BD0F900F9027
:1006B0000F900F9020E030E002C02FEF3FEFC90114
:1006C000DF91CF911F910F91FF90EF90DF90CF902E
:1006D000BF90AF900895AF92BF92CF92DF92EF920A
:1006E000FF920F931F93CF93DF93EC016536710553
:1006F00058F57D836C83882777FD8095982F4A81F4
:100700005B818A01222717FD2095322F3F932F937B
:100710001F930F93A12CB12C650114E6E12EF12C4F
:1007200000E010E020E030E0A9010E946D147F831A
:100730006E8370938B0060938A000F900F900F90E0
:100740000F9020E030E002C02FEF3FEFC901DF91B2
:10075000CF911F910F91FF90EF90DF90CF90BF90BE
:10076000AF900895FC0160347105E9F03CF4611527
:10077000710569F06830710541F511C0611581E0BE
:100780007807A9F0611584E07807F9F414C0809126
:1007900081008160809381001186108613C0809152
:1007A000810082600BC080918100836007C08091CE
:1007B0008100846003C08091810085608093810006
:1007C0007187608720E030E002C021E030E0C9019D
:1007D0000895EF92FF920F931F93CF93DF93CDB7BE
:1007E000DEB727970FB6F894DEBF0FBECDBF8C01E2
:1007F0007B016CE671E0CE0101960E94B712BE014A
:100800006F5F7F4F89EC92E00E94D90FCE01019675
:100810000E94461260E972E089EC92E00E940F109B
:100820004AE061E470E0CE0101960E943C13BE01F3
:100830006F5F7F4F89EC92E00E94D90FCE01019645
:100840000E94461260E972E089EC92E00E940F106B
:1008500062ED71E0CE0101960E94B712BE016F5F9A
:100860007F4F89EC92E00E94D90FCE0101960E9441
:10087000461261E271E089EC92E00E940F1064EA96
:1008800071E089EC92E00E94421080E4E816F104E5
:1008900009F457C04CF4E114F10489F0F8E0EF16C4
:1008A000F10409F0F2C02CC0E11481E0F80609F46B
:1008B00069C0E114E4E0FE0609F0E7C084C085B534
:1008C000816085BDF801118610866CE671E0CE016D
:1008D00001960E94B712BE016F5F7F4F89EC92E0D4
:1008E0000E94D90FCE0101960E94461260E972E083
:1008F00089EC92E00E940F104AE066E470E083C049
:1009000085B5826085BDF801F186E0866CE671E010
:10091000CE0101960E94B712BE016F5F7F4F89EC36
:1009200092E00E94D90FCE0101960E94461260E922
:1009300072E089EC92E00E940F104AE06BE470E0F4
:1009400062C085B5836085BDF801F186E0866CE6FE
:1009500071E0CE0101960E94B712BE016F5F7F4F1A
:1009600089EC92E00E94D90FCE0101960E944612B6
:1009700060E972E089EC92E00E940F104AE060E5C5
:1009800070E041C085B5846085BDF801F186E086E0
:100990006CE671E0CE0101960E94B712BE016F5F56
:1009A0007F4F89EC92E00E94D90FCE0101960E9400
:1009B000461260E972E089EC92E00E940F104AE072
:1009C00065E570E020C085B5856085BDF801F186DC
:1009D000E0866CE671E0CE0101960E94B712BE017E
:1009E0006F5F7F4F89EC92E00E94D90FCE01019694
:1009F0000E94461260E972E089EC92E00E940F10BA
:100A00004AE06AE570E0CE0101960E943C13BE0107
:100A10006F5F7F4F89EC92E00E94D90FCE01019663
:100A20000E94461260E972E089EC92E00E940F1089
:100A300062ED71E0CE0101960E94B712BE016F5FB8
:100A40007F4F89EC92E00E94D90FCE0101960E945F
:100A5000461261E271E089EC92E00E940F10F80109
:100A6000608571854AE0CE0101960E943C13BE016B
:100A70006F5F7F4F89EC92E00E942E10CE010196AD
:100A80000E94461220E030E002C021E030E0C901BF
:100A900027960FB6F894DEBF0FBECDBFDF91CF9182
:100AA0001F910F91FF90EF900895EFE6F0E0208105
:100AB00022602083229AFC012281338130938900B5
:100AC000209388008681978190938B0080938A0081
:100AD000A1E8B0E01C92E0E8F0E0108210928500FE
:100AE000109284008081806280838C9188618C93D5
:100AF0008081836080838081808380E090E008959E
:100B0000CF93DF93CDB7DEB727970FB6F894DEBF4C
:100B10000FBECDBF559AFC01228127BD868188BDBD
:100B200015BC14BC16BC84B5806284BD85B58860D4
:100B300085BD84B5816084BD84B584BD6CE671E0FB
:100B4000CE0101960E94B712BE016F5F7F4F89EC04
:100B500092E00E94D90FCE0101960E94461260E9F0
:100B600072E089EC92E00E940F104AE062E370E0CC
:100B7000CE0101960E943C13BE016F5F7F4F89EC4E
:100B800092E00E94D90FCE0101960E94461260E9C0
:100B900072E089EC92E00E940F1067E072E0CE01F3
:100BA00001960E94B712BE016F5F7F4F89EC92E001
:100BB0000E94D90FCE0101960E94461261E271E0B7
:100BC00089EC92E00E940F1064B54AE0CE010196D4
:100BD0000E946913BE016F5F7F4F89EC92E00E9413
:100BE0002E10CE0101960E9446126CE671E0CE01F5
:100BF00001960E94B712BE016F5F7F4F89EC92E0B1
:100C00000E94D90FCE0101960E94461260E972E05F
:100C100089EC92E00E940F104AE063E370E0CE019D
:100C200001960E943C13BE016F5F7F4F89EC92E0FA
:100C30000E94D90FCE0101960E94461260E972E02F
:100C400089EC92E00E940F1067E072E0CE010196FD
:100C50000E94B712BE016F5F7F4F89EC92E00E9445
:100C6000D90FCE0101960E94461261E271E089EC33
:100C700092E00E940F1065B54AE0CE0101960E94F5
:100C80006913BE016F5F7F4F89EC92E00E942E10C6
:100C9000CE0101960E94461227960FB6F894DEBF49
:100CA0000FBECDBFDF91CF9108950F931F93CF93C8
:100CB000DF938C01DC0113961C921E9212971596FD
:100CC0001C921E92149764EA71E006960E94B71275
:100CD0008AE090E00E948C0FEC0183EE91E0998312
:100CE000888384EF91E09B838A8360E570E0CE0186
:100CF0000E946B0319861886CE010E945505D09379
:100D0000B702C093B602E881F9810480F581E02D35
:100D100060E177E2CE0109958091B6029091B70229
:100D2000DC01ED91FC910680F781E02D6FE570E02C
:100D300009958AE090E00E948C0FEC0187EF91E02A
:100D40009983888388EC90E09B838A8365E070E0D8
:100D5000CE010E942703198618868A8187BD8E815D
:100D600088BDCE010E948005D093B502C093B40225
:100D7000E881F9810480F581E02D68EC70E0CE0116
:100D800009958091B4029091B502DC01ED91FC913E
:100D90000680F781E02D65E070E0099581E090E044
:100DA0000E948C0FEC010E946800D093B302C093A4
:100DB000B20261E070E0CE010E948B008091B2022D
:100DC0009091B3020E947F0083E090E00E947D0D2D
:100DD000FC01D8018D939C938EE680838091B402B0
:100DE0009091B502DC01ED91FC910280F381E02D40
:100DF00060E070E0DF91CF911F910F9109946F92A5
:100E00007F928F929F92AF92BF92CF92DF92EF929A
:100E1000FF920F931F93CF93DF9300D000D0CDB7F5
:100E2000DEB73B017A01FB01008511858281938148
:100E3000B801681B790B882777FD8095982F0E9451
:100E40003016F30124813581468157810E9437177E
:100E50005B016C0120E030E040E85FE37B2D9D2DDD
:100E60000E94331787FD1FC06A2D7B2D8C2D9D2D71
:100E70000E946B169B01AC01B801882777FD809515
:100E8000982F29833A834B835C830E9430162981F3
:100E90003A814B815C810E9498150E94FD15F301F7
:100EA0007187608754C0F1E0EF16F10409F048C083
:100EB000F30122853385448555856A2D7B2D8C2D44
:100EC0009D2D0E9499156B017C01862F9D2DAE2DC5
:100ED000BF2DF30182879387A487B58720E030E098
:100EE00040E85FE36C2D7D2D8E2D9F2D0E943317E2
:100EF00087FD2DC06C2D7D2D8E2D9F2D0E946B1694
:100F00004B015C01B801882777FD8095982F0E94DE
:100F10003016A50194010E9498150E94FD15F30159
:100F200071876087A50194016C2D7D2D8E2D9F2DDD
:100F30000E949815F301628773878487958707C09D
:100F4000EF2829F401501109F301118700870F9050
:100F50000F900F900F90DF91CF911F910F91FF9005
:100F6000EF90DF90CF90BF90AF909F908F907F9049
:100F70006F9008950F931F93CF93DF93CDB7DEB794
:100F8000C359D1090FB6F894DEBF0FBECDBF8C0197
:100F9000FA018081863689F034F48236E9F18436AC
:100FA00009F006C21EC0803709F478C0823709F400
:100FB00061C08E3609F0FCC149C08091B6029091A3
:100FC000B702DC012D913C9161817281D9011496A7
:100FD000ED91FC91159709958091B6029091B70219
:100FE0002EC08091B6029091B702DC012D913C9108
:100FF00061817281D9011696ED91FC91179709953F
:101000008091B6029091B702DC01ED91FC910484CD
:10101000F585E02D09953CC08091B4029091B50210
:10102000DC012D913C9161817281D9011496ED9181
:10103000FC91159709958091B4029091B502DC015D
:10104000ED91FC910284F385E02DE4CF8091B40210
:101050009091B502DC012D913C9161817281D901A1
:101060001696ED91FC91179709958091B402909195
:10107000B502CACF618172818091B2029091B302B0
:101080000E948B008091B2029091B3020E94900066
:101090004AE0BC01C8010E943C1394C16BE771E0B7
:1010A000CE0101960E94B71263EA71E0CE01089664
:1010B0000E94B7128091B2029091B3020E9479000F
:1010C0004AE0BC01CE010F960E943C1360E871E03B
:1010D000CE0146960E94B71263EA71E0CE014D96AA
:1010E0000E94B7128091B2029091B3020E949000C8
:1010F0004AE0BC01CE0184960E943C1363EC71E08F
:10110000CE018B960E94B71263EA71E0CE01C296BF
:101110000E94B7128091B4029091B502DC01ED916A
:10112000FC910484F585E02D09954AE0BC01CE01CF
:10113000C9960E943C1362E871E0CE01805C9F4F2B
:101140000E94B71263EA71E0CE01895B9F4F0E9453
:10115000B7128091B4029091B502DC01ED91FC913F
:101160000284F385E02D09954AE0BC01CE01825B43
:101170009F4F0E943C1368E871E0CE018B5A9F4F4D
:101180000E94B71263EA71E0CE01845A9F4F0E9419
:10119000B7128091B6029091B702DC01ED91FC91FB
:1011A0000484F585E02D09954AE0BC01CE018D59F6
:1011B0009F4F0E943C136EE871E0CE0186599F4F0D
:1011C0000E94B71263EA71E0CE018F589F4F0E94D0
:1011D000B7128091B6029091B702DC01ED91FC91BB
:1011E0000284F385E02D09954AE0BC01CE018858C0
:1011F0009F4F0E943C1364E971E0CE018A579F4FD4
:101200000E94B7126AE971E0CE0183579F4F0E9496
:10121000B712BE0163577F4FCE0181589F4F0E9486
:10122000EB12BE016A577F4FCE0181589F4F0E943B
:101230000514BE0168587F4F0E940514BE016F5807
:101240007F4F0E940514BE0166597F4F0E9405140E
:10125000BE016D597F4F0E940514BE01645A7F4F35
:101260000E940514BE016B5A7F4F0E940514BE01F7
:10127000625B7F4F0E940514BE01695B7F4F0E9435
:101280000514BE01605C7F4F0E940514BE01675CBF
:101290007F4F0E940514BE016E5C7F4F0E940514B3
:1012A000BE01655D7F4F0E940514BE016C5D7F4FDE
:1012B0000E940514BE01635E7F4F0E940514BE01AB
:1012C0006A5E7F4F0E940514BE01615F7F4F0E94DE
:1012D0000514BE01685F7F4F0E940514BE016F5F59
:1012E0007F4F0E940514BC01C8010E94EB12CE0181
:1012F00081589F4F0E944612CE0183579F4F0E94F4
:101300004612CE018A579F4F0E944612CE0188583E
:101310009F4F0E944612CE018F589F4F0E94461247
:10132000CE0186599F4F0E944612CE018D599F4F84
:101330000E944612CE01845A9F4F0E944612CE014F
:101340008B5A9F4F0E944612CE01825B9F4F0E9494
:101350004612CE01895B9F4F0E944612CE01805CEF
:101360009F4F0E944612CE01C9960E944612CE019E
:10137000C2960E944612CE018B960E944612CE0162
:1013800084960E944612CE014D960E944612CE01CE
:1013900046960E944612CE010F960E944612CE013A
:1013A00008960E944612CE0101960E9446120AC07B
:1013B00081E090E0FB019583848365EA71E0C801D8
:1013C0000E94B712C801CD56DF4F0FB6F894DEBFAA
:1013D0000FBECDBFDF91CF911F910F9108950F9355
:1013E0001F93CF93DF93CDB7DEB76C970FB6F8940A
:1013F000DEBF0FBECDBF8C01DC0112968D919C919A
:101400001397892B09F43EC18091B0029091B102EB
:10141000FC01408551852281338124173507BCF0BA
:10142000E091AE02F091AF02408551852281338177
:10143000241735072CF1E091AC02F091AD02408504
:1014400051852281338124173507D4F009C141E049
:1014500050E0BC01C8010E94FF068091B602909145
:10146000B702DC01ED91FC91A091B002B091B10204
:1014700018966D917C9119970480F581E02D09955E
:101480006091AE027091AF02FB01208531858281AF
:10149000938182179307C4F441E050E0C8010E9491
:1014A000FF068091B6029091B702DC01ED91FC91AC
:1014B000A091AE02B091AF0218966D917C911997F0
:1014C0000680F781E02D09956091AC027091AD0224
:1014D000FB012085318582819381821793078CF4EB
:1014E00041E050E0C8010E94FF06E091AC02F0919B
:1014F000AD02608571858091B2029091B3020E9425
:101500008B006BEA71E0CE0101960E94B712BE011A
:101510006F5F7F4F89EC92E00E94D90FCE01019658
:101520000E94461260E972E089EC92E00E940F107E
:101530004AE060E970E0CE0101960E943C13BE01D2
:101540006F5F7F4F89EC92E00E94D90FCE01019628
:101550000E94461260E972E089EC92E00E940F104E
:1015600065E272E0CE0101960E94B712BE016F5F84
:101570007F4F89EC92E00E94D90FCE0101960E9424
:10158000461261E271E089EC92E00E940F108091B6
:10159000B2029091B3020E9490004AE0BC01CE01D9
:1015A00001960E943C138091B6029091B702DC0133
:1015B000ED91FC910484F585E02D09954AE0BC018C
:1015C000CE0108960E943C138091B6029091B7021A
:1015D000DC01ED91FC910284F385E02D09954AE050
:1015E000BC01CE0146960E943C136DEB71E0CE012A
:1015F0000F960E94B712BE016A5E7F4FCE010F9612
:101600000E9405146FEB71E00E941B14BE01685F1D
:101610007F4F0E94051462EC71E00E941B14BE0112
:101620006F5F7F4F0E940514BC0189EC92E00E941D
:101630002E10CE010F960E944612CE0146960E94B1
:101640004612CE0108960E944612CE0101960E94D3
:10165000461264E670E080E090E00E942B0F30C0FC
:10166000F801138212820E94180E8091AE029091AE
:10167000AF020E94180E8091AC029091AD020E94C0
:10168000180E1EC0D80114968D919C911597892B28
:10169000B9F44D915C91B801CE0101960E94BA0750
:1016A000BE016F5F7F4FC80106960E94D412CE0123
:1016B00001960E94461281E090E0F80195838483B0
:1016C0006C960FB6F894DEBF0FBECDBFDF91CF9101
:1016D0001F910F910895FC0171836083158214821C
:1016E0000895CF93DF93EC016A5F7F4F0E94EB1266
:1016F000CE01DF91CF910895CF93DF93CDB7DEB7C1
:1017000027970FB6F894DEBF0FBECDBF6BEA71E02E
:10171000CE0101960E94B712BE016F5F7F4F89EC28
:1017200092E00E94D90FCE0101960E94461260E914
:1017300072E089EC92E00E940F104AE06AED70E0DE
:10174000CE0101960E943C13BE016F5F7F4F89EC72
:1017500092E00E94D90FCE0101960E94461260E9E4
:1017600072E089EC92E00E940F106DE272E0CE010F
:1017700001960E94B712BE016F5F7F4F89EC92E025
:101780000E94D90FCE0101960E94461261E271E0DB
:1017900089EC92E00E940F1065EC71E089EC92E018
:1017A0000E9442108091B6029091B702DC01ED9147
:1017B000FC910280F381E02D60E070E009952796AE
:1017C0000FB6F894DEBF0FBECDBFDF91CF91089565
:1017D0000F931F93CF93DF93CDB7DEB727970FB645
:1017E000F894DEBF0FBECDBF8091BC029091BD02C8
:1017F000892B59F48DE090E00E948C0F8C010E949F
:10180000DE001093BD020093BC0263E372E0CE01E0
:1018100001960E94B712BE016F5F7F4F89EC92E084
:101820000E94D90FCE0101960E94461260E972E033
:1018300089EC92E00E940F104AE065E270E0CE0170
:1018400001960E943C13BE016F5F7F4F89EC92E0CE
:101850000E94D90FCE0101960E94461261E271E00A
:1018600089EC92E00E940F1062E472E089EC92E051
:101870000E9442108091BE029091BF02892B59F4C0
:101880008DE090E00E948C0F8C010E945506109311
:10189000BF020093BE028091BE029091BF020E94DF
:1018A0007C0B63E372E0CE0101960E94B712BE0189
:1018B0006F5F7F4F89EC92E00E94D90FCE010196B5
:1018C0000E94461260E972E089EC92E00E940F10DB
:1018D0004AE06EE270E0CE0101960E943C13BE0128
:1018E0006F5F7F4F89EC92E00E94D90FCE01019685
:1018F0000E94461261E271E089EC92E00E940F10B2
:1019000062E672E089EC92E00E94421027960FB6E0
:10191000F894DEBF0FBECDBFDF91CF911F910F9125
:1019200008950F931F93CF93DF93CDB7DEB72E9714
:101930000FB6F894DEBF0FBECDBF8091BC02909170
:10194000BD020E9499028C0181309105A9F4809119
:10195000BC029091BD020E9469029093BB028093E9
:10196000BA02BC018091BE029091BF020E946B0B33
:101970001093B9020093B8028091BE029091BF0209
:101980000E94EF098091B8029091B902019709F085
:10199000A3C063E372E0CE0108960E94B712BE01B5
:1019A000685F7F4F89EC92E00E94D90FCE010896C4
:1019B0000E94461260E972E089EC92E00E940F10EA
:1019C0004AE062E470E0CE0108960E943C13BE013A
:1019D000685F7F4F89EC92E00E94D90FCE01089694
:1019E0000E94461261E271E089EC92E00E940F10C1
:1019F0006091BE027091BF02CE0108960E94710BE9
:101A0000BE01685F7F4F89EC92E00E942E10CE01EC
:101A100008960E94461263E372E0CE0108960E9487
:101A2000B712BE01685F7F4F89EC92E00E94D90F28
:101A3000CE0108960E94461260E972E089EC92E0BD
:101A40000E940F104AE063E470E0CE0108960E9405
:101A50003C13BE01685F7F4F89EC92E00E94D90F72
:101A6000CE0108960E94461261E271E089EC92E094
:101A70000E940F1000918A0010918B0060918800E5
:101A8000709189004AE0CE0108960E940F1361E828
:101A900072E0CE0101960E94B712BE01685F7F4FCF
:101AA000CE0101960E9405146AE872E00E941B14A0
:101AB000B8010E943814BC0189EC92E00E942E10FB
:101AC000CE0101960E944612CE0108960E9446124F
:101AD0001092B9021092B8022E960FB6F894DEBF9B
:101AE0000FBECDBFDF91CF911F910F9108958091CF
:101AF000BC029091BD020C94BE010F931F93CF9333
:101B0000DF938230910510F482E090E0E09176035B
:101B1000F091770320E030E0C0E0D0E023C04081C6
:101B2000518148175907A8F04817590761F4828175
:101B30009381209719F09B838A832EC0909377031B
:101B40008093760329C02115310529F042175307E8
:101B500010F0A90102C0BE01DF0102811381EF0173
:101B60009A01F8013097D9F62115310509F1281BA2
:101B7000390B2430310590F412968D919C91139776
:101B80006115710521F0FB019383828304C090935A
:101B9000770380937603FD01329644C0FD01E20F86
:101BA000F31F81939193225031092D933C933AC0B6
:101BB0002091740330917503232B41F4209102018D
:101BC0003091030130937503209374032091000139
:101BD000309101012115310541F42DB73EB74091F7
:101BE000040150910501241B350BE0917403F09121
:101BF0007503E217F307A0F42E1B3F0B28173907D4
:101C000078F0AC014E5F5F4F2417350748F04E0F58
:101C10005F1F50937503409374038193919302C0A7
:101C2000E0E0F0E0CF01DF91CF911F910F91089597
:101C3000EF92FF920F931F93CF93DF93009709F4D6
:101C40008FC0DC01129713961C921E921297E0909F
:101C50007603F0907703E114F10489F42D913C911F
:101C60001197280F391F8091740390917503821783
:101C7000930789F5B0937503A093740371C0E701CE
:101C800020E030E001C0EA01CA17DB0738F44A81DE
:101C90005B819E0141155105B1F722C0BC01625024
:101CA0007109FB01D383C28300811181AC01400F14
:101CB000511F4C175D0761F448815981400F511F36
:101CC0004E5F5F4F518340834A815B8153834283E0
:101CD0002115310529F4B0937703A093760340C012
:101CE000F901B383A283E90169917991C60FD71FE6
:101CF000AC17BD0779F4DC015E914E91460F571F7A
:101D00004E5F5F4F5183408312968D919C91139744
:101D100093838283A0E0B0E002C0D7017C01F70189
:101D2000828193810097C9F7C70102962081318192
:101D3000820F931F20917403309175032817390780
:101D400079F4109729F4109277031092760304C067
:101D500013961C921E921297F0927503E0927403F0
:101D6000DF91CF911F910F91FF90EF9008951F92F7
:101D70000F920FB60F9211242F933F938F939F933F
:101D8000AF93BF938091C0029091C102A091C20213
:101D9000B091C3023091C802232F2D5F2D3720F45C
:101DA0000196A11DB11D05C0232F2A570296A11D22
:101DB000B11D2093C8028093C0029093C102A093EA
:101DC000C202B093C3028091C4029091C502A09157
:101DD000C602B091C7020196A11DB11D8093C40235
:101DE0009093C502A093C602B093C702BF91AF9172
:101DF0009F918F913F912F910F900FBE0F901F9049
:101E000018950F931F939FB7F8940091C4021091F7
:101E1000C5022091C6023091C70286B5A89B06C0B4
:101E20008F3F21F00F5F1F4F2F4F3F4F9FBF322F2C
:101E3000212F102F0027080F111D211D311D42E0F9
:101E4000000F111F221F331F4A95D1F7B801C90196
:101E50001F910F910895CF92DF92EF92FF92CF934F
:101E6000DF936B017C010E94010FEB010EC00E9409
:101E7000010F6C1B7D0B683E734038F081E0C81A7F
:101E8000D108E108F108C851DC4FC114D104E104C4
:101E9000F10469F7DF91CF91FF90EF90DF90CF9041
:101EA0000895789484B5826084BD84B5816084BDD2
:101EB00085B5826085BD85B5816085BDEEE6F0E0C3
:101EC000808181608083E1E8F0E01082808182601F
:101ED0008083808181608083E0E8F0E080818160A0
:101EE0008083E1EBF0E0808184608083E0EBF0E0D0
:101EF000808181608083EAE7F0E080818460808374
:101F0000808182608083808181608083808180681D
:101F100080831092C10008950C947D0D0E94510F92
:101F20000E94E80BCBE2D1E10E94910C2097E1F3F3
:101F30000E942B11F9CFCF92DF92EF92FF920F9375
:101F40001F93CF93DF936C01EB017A01E60EF71E2E
:101F500000E010E00BC06991D601ED91FC91019079
:101F6000F081E02DC6010995080F191FCE15DF0578
:101F700091F7C801DF91CF911F910F91FF90EF90E2
:101F8000DF90CF9008956115710581F0DB010D9010
:101F90000020E9F7AD0141505109461B570BDC0108
:101FA000ED91FC910280F381E02D099480E090E0B6
:101FB0000895AF92BF92CF92DF92EF92FF920F936C
:101FC0001F93CF93DF937C016B0100E010E0C0E032
:101FD000D0E011C0D701ED91FC91A080B180B80193
:101FE000C6010E945C14682FC701F5010995C80F4E
:101FF000D91F0F5F1F4FD60114968D919C91159795
:102000000817190738F3CE01DF91CF911F910F9177
:10201000FF90EF90DF90CF90BF90AF9008950C9419
:10202000C30FDC01ED91FC910190F081E02D09944A
:102030000F931F93CF93DF93EC016DE00E9411107B
:102040008C016AE0CE010E9411109C01200F311F0B
:10205000C901DF91CF911F910F9108950F931F93A5
:10206000CF93DF93EC010E94D90F8C01CE010E9427
:1020700018109C01200F311FC901DF91CF911F91D2
:102080000F9108950F931F93CF93DF93EC010E945C
:10209000C30F8C01CE010E9418109801280F391F20
:1020A000C901DF91CF911F910F910895FC018485A3
:1020B0009585FC01E05CFF4F20813181FC01EE5BE6
:1020C000FF4F80819181281B390B2F733327C90162
:1020D0000895FC0184859585FC01E05CFF4F4081FB
:1020E0005181FC01EE5BFF4F208131814217530784
:1020F00041F00190F081E02DE80FF91F208130E0E0
:1021000002C02FEF3FEFC9010895FC01848595853A
:10211000FC01E05CFF4F40815181FC01EE5BFF4F11
:10212000208131814217530781F0A081B181A80F2E
:10213000B91F8C91208131812F5F3F4F2F7333273F
:1021400031832083282F30E002C02FEF3FEFC901F9
:102150000895FC0181A1882329F0A489B5898C9177
:1021600086FFFBCF11A20895CF93DF93FC01268554
:102170003785D901A05CBF4F8D919C911197019635
:102180008F739927E901CE5BDF4F4881598184170E
:102190009507D9F30D90BC91A02DA20FB31F6C939E
:1021A000A685B785A05CBF4F11969C938E93A68998
:1021B000B7892C9181E090E0078C02C0880F991FAD
:1021C0000A94E2F7282B2C9381E081A30488F589F7
:1021D000E02D80818064808381E090E0DF91CF9169
:1021E00008951F920F920FB60F9211242F933F93D1
:1021F0004F938F939F93EF93FF938091C00082FD45
:102200001CC04091C60080916F03909170030196AD
:102210008F7399272091710330917203821793076E
:1022200071F0E0916F03F0917003E15DFC4F40832A
:102230009093700380936F0302C08091C600FF915A
:10224000EF919F918F914F913F912F910F900FBEE2
:102250000F901F90189589EC92E00E945610892BE0
:1022600011F00C94770D08951F920F920FB60F92F4
:1022700011242F933F938F939F93EF93FF9320917C
:102280002B0330912C0380912D0390912E0328175E
:10229000390731F48091C1008F7D8093C10014C053
:1022A000E0912D03F0912E03E551FD4F20818091A7
:1022B0002D0390912E0301968F73992790932E03EF
:1022C00080932D032093C600FF91EF919F918F91F2
:1022D0003F912F910F900FBE0F901F901895CF92A6
:1022E000DF92EF92FF92CF93DF93EC016A017B01C3
:1022F000411581EE580761057105F9F0EC89FD89FA
:1023000081E090E008A002C0880F991F0A94E2F7CC
:10231000808360E079E08DE390E0A70196010E9460
:10232000BE172150310941095109569547953795F6
:102330002795211580E1380798F0EC89FD891082F6
:1023400060E874E88EE190E0A70196010E94BE1754
:1023500021503109410951095695479537952795DF
:10236000E889F9893083EA89FB89208319A2EE89FB
:10237000FF89408181E090E09C010C8C02C0220F1B
:10238000331F0A94E2F7422B4083EE89FF89408194
:102390009C010D8C02C0220F331F0A94E2F7422BDE
:1023A0004083EE89FF8940819C010E8C02C0220F80
:1023B000331F0A94E2F7422B4083EE89FF89208184
:1023C0000F8C02C0880F991F0A94E2F78095822330
:1023D0008083DF91CF91FF90EF90DF90CF900895B1
:1023E0001092CC021092CB0288EE93E0A0E0B0E015
:1023F0008093CD029093CE02A093CF02B093D002EF
:1024000086E992E09093CA028093C9028FE293E03A
:102410009093D6028093D5028BEE92E09093D802EF
:102420008093D70285EC90E09093DA028093D902F2
:1024300084EC90E09093DC028093DB0280EC90E0EF
:102440009093DE028093DD0281EC90E09093E002B5
:102450008093DF0282EC90E09093E2028093E102AD
:1024600086EC90E09093E4028093E30284E0809312
:10247000E50283E08093E60287E08093E70285E04F
:102480008093E80281E08093E9020895FC01808155
:1024900091810C94180ECF93DF93EC018881998180
:1024A000009711F00E94180E198218821D821C825A
:1024B0001B821A82DF91CF9108950F931F93CF93C0
:1024C000DF93EC018B016F5F7F4F888199810E94C0
:1024D000B414009731F0998388831B830A8381E0C9
:1024E00001C080E0DF91CF911F910F910895CF93AC
:1024F000DF93EC0188819981892B31F08A819B815E
:102500008617970708F00CC0CE010E945D12882341
:1025100049F08C819D81892B19F4E881F981108221
:1025200081E001C080E0DF91CF910895EF92FF92AA
:102530000F931F93CF93DF93EC017B018A01BA01C4
:102540000E947712811104C0CE010E944B1207C075
:102550001D830C83B701888199810E945418CE0194
:10256000DF91CF911F910F91FF90EF900895DC01C3
:1025700011961C921E9213961C921E9212971596FB
:102580001C921E92149716961C926115710559F0B3
:10259000DB010D900020E9F7AD0141505109461BC8
:1025A000570B0C9496120895CF93DF93EC01FB0127
:1025B0008617970761F0608171816115710529F0B7
:1025C000448155810E94961202C00E944B12CE0196
:1025D000DF91CF910895FC01118210821382128243
:1025E0001582148216820C94D412CF93DF93D82FC5
:1025F000C92F6115710561F0DB010D900020E9F72D
:10260000AD0141505109461B570B0E94961202C062
:102610000E944B128D2F9C2FDF91CF9108950F9325
:102620001F93CF93DF93CDB7DEB761970FB6F894C2
:10263000DEBF0FBECDBF8C01CB01F801118210822D
:102640001382128215821482168250E0BE016F5FDF
:102650007F4F0E948418BE016F5F7F4FC8010E94A8
:10266000F51261960FB6F894DEBF0FBECDBFDF91B5
:10267000CF911F910F9108950F931F93CF93DF93E5
:10268000CDB7DEB762970FB6F894DEBF0FBECDBFF1
:102690008C01CB01F8011182108213821282158203
:1026A0001482168250E0BE016F5F7F4F0E945B185C
:1026B000BE016F5F7F4FC8010E94F51262960FB690
:1026C000F894DEBF0FBECDBFDF91CF911F910F9168
:1026D00008950F931F93CF93DF93CDB7DEB729975C
:1026E0000FB6F894DEBF0FBECDBF8C01862FF80168
:1026F000118210821382128215821482168250E097
:10270000BE016F5F7F4F90E00E948418BE016F5F33
:102710007F4FC8010E94F51229960FB6F894DEBFCC
:102720000FBECDBFDF91CF911F910F910895EF9212
:10273000FF920F931F93CF93DF93EC017B010C81EA
:102740001D816115710511F480E016C04115510518
:1027500091F0040F151FB8010E9477128823A1F38E
:10276000288139818C819D81B701820F931F0E943E
:1027700054181D830C8381E0DF91CF911F910F913D
:10278000FF90EF900895CF93DF9300D0CDB7DEB7E1
:1027900069831A8241E050E0BE016F5F7F4F0E9463
:1027A00097130F900F90DF91CF910895EF92FF92C2
:1027B0000F931F93CF93DF9300D000D000D0CDB7FD
:1027C000DEB77C01CB014AE050E08E010F5F1F4F66
:1027D000B8010E948418F80101900020E9F7AF01C8
:1027E00041505109401B510BB801C7010E9497137A
:1027F00026960FB6F894DEBF0FBECDBFDF91CF9106
:102800001F910F91FF90EF900895CF93DF93D82FF2
:10281000C92FFB0144815581608171810E9497130A
:10282000811104C08D2F9C2F0E944B128D2F9C2F45
:10283000DF91CF910895CF93DF93D82FC92F6115E2
:10284000710569F0DB010D900020E9F7AD01415001
:102850005109461B570B0E949713811104C08D2FFD
:102860009C2F0E944B128D2F9C2FDF91CF910895AA
:10287000CF93DF93D82FC92F0E94D613811104C0A4
:102880008D2F9C2F0E944B128D2F9C2FDF91CF916B
:102890000895FC01248135816217730720F480813B
:1028A0009181009729F41092730363E773E002C0EB
:1028B000680F791FCB010895FC01248135816217CF
:1028C000730748F480819181009729F0FC01E60F9D
:1028D000F71F8081089580E008954F925F926F9274
:1028E0007F92AF92BF92CF92DF92EF92FF920F93BF
:1028F0001F93CF93DF93CDB7DEB729013A01621B57
:10290000730B840B950B29893A894B895C892A19A9
:102910003B094C095D09298B3A8B4B8B5C8B9B01E6
:10292000AC0169897A898B899C890E949A17E4187D
:10293000F50806091709A80197010E94E0172A0D5A
:102940003B1D4C1D5D1DB901CA01DF91CF911F9147
:102950000F91FF90EF90DF90CF90BF90AF907F905E
:102960006F905F904F9008958F929F92AF92BF9219
:10297000CF92DF92EF92FF920F931F93CF93DF934B
:10298000EC01009779F4CB01DF91CF911F910F916A
:10299000FF90EF90DF90CF90BF90AF909F908F907F
:1029A0000C947D0DDC01A60FB71FFC013297AE170A
:1029B000BF0718F4C0E0D0E0ADC000811181061758
:1029C0001707B0F00530110508F4A4C0C80104973A
:1029D0008617970708F49EC002501109061B170BB3
:1029E0000D931D9371836083CD010E94180E92C0D8
:1029F0007B01E01AF10A5C01A00EB11EE0917603A2
:102A0000F0917703812C912C80E090E04CC0EA1586
:102A1000FB05F1F5408151816A0122E0C20ED11C13
:102A2000CE14DF04A8F19A012E193F09790169013A
:102A300032E0C30ED11C2EEFA22EBB24BA94AC0EF2
:102A4000BD1E25E0C216D10478F042815381139651
:102A50005C934E9312971196FC92EE92F50171835E
:102A600060833A2F2B2F09C00E5F1F4F040F151FD5
:102A7000D5010D931C9332812381009721F0FC0135
:102A80003283238347C0309376032093770342C079
:102A9000808191818816990608F44C015281438106
:102AA000CF01E52FF42F309709F0B1CF8091740357
:102AB000909175038A159B05F1F486169706D8F454
:102AC0008091000190910101009741F48DB79EB76C
:102AD0002091040130910501821B930BA817B907BF
:102AE00008F068CFB0937503A0937403FE0132978A
:102AF000718360830FC0CB010E947D0D7C01009724
:102B000009F458CFA801BE010E944B18CE010E94C3
:102B1000180EE701CE01DF91CF911F910F91FF9029
:102B2000EF90DF90CF90BF90AF909F908F900895DF
:102B30005058BB27AA270ED045C136D130F03BD123
:102B400020F031F49F3F11F41EF42BC10EF4E095F8
:102B5000E7FBF8C0E92F47D180F3BA176207730784
:102B60008407950718F071F49EF576C10EF4E09590
:102B70000B2EBA2FA02D0B01B90190010C01CA0137
:102B8000A0011124FF27591B99F0593F50F4503EE2
:102B900068F11A16F040A22F232F342F4427585FD4
:102BA000F3CF469537952795A795F0405395C9F7EC
:102BB0007EF41F16BA0B620B730B840BBAF09150A4
:102BC000A1F0FF0FBB1F661F771F881FC2F70EC043
:102BD000BA0F621F731F841F48F487957795679516
:102BE000B795F7959E3F08F0B3CF9395880F08F0FF
:102BF0009927EE0F97958795089504D06894B111A1
:102C00002CC10895F8D088F09F5790F0B92F9927DC
:102C1000B751A0F0D1F0660F771F881F991F1AF0E7
:102C2000BA95C9F712C0B13081F016D1B1E008955C
:102C300013C1672F782F8827B85F39F0B93FCCF3DD
:102C4000869577956795B395D9F73EF490958095DD
:102C5000709561957F4F8F4F9F4F0895E89409C0FD
:102C600097FB3EF490958095709561957F4F8F4FBF
:102C70009F4F9923A9F0F92F96E9BB279395F695D5
:102C8000879577956795B795F111F8CFFAF4BB0F53
:102C900011F460FF1BC06F5F7F4F8F4F9F4F16C0B7
:102CA000882311F096E911C0772321F09EE8872F41
:102CB000762F05C0662371F096E8862F70E060E0FD
:102CC0002AF09A95660F771F881FDAF7880F969576
:102CD000879597F90895A9D080F09F3740F4911116
:102CE0000EF0BBC060E070E080E89FEB089526F432
:102CF0001B16611D711D811D2BC045C0990F000859
:102D0000550FAA0BE0E8FEEF16161706E807F907BD
:102D1000C0F012161306E407F50798F0621B730B58
:102D2000840B950B39F40A2661F0232B242B252BD9
:102D300021F408950A2609F4A140A6958FEF811D7C
:102D4000811D089597F99F6780E870E060E008951D
:102D5000882371F4772321F09850872B762F07C0B2
:102D6000662311F499270DC09051862B70E060E026
:102D70002AF09A95660F771F881FDAF7880F9695C5
:102D8000879597F908959F3F31F0915020F48795EA
:102D900077956795B795880F911D9695879597F9C3
:102DA00008959FEF80EC089500240A9416161706E4
:102DB00018060906089500240A941216130614062C
:102DC00005060895092E0394000C11F4882352F08F
:102DD000BB0F40F4BF2B11F460FF04C06F5F7F4F47
:102DE0008F4F9F4F089557FD9058440F551F59F02E
:102DF0005F3F71F04795880F97FB991F61F09F3FE8
:102E000079F087950895121613061406551FF2CF10
:102E10004695F1DF08C0161617061806991FF1CF60
:102E200086957105610508940895E5DFA0F0BEE779
:102E3000B91788F4BB279F3860F41616B11D672FA9
:102E4000782F8827985FF7CF869577956795B11D7E
:102E500093959639C8F30895E894BB27662777279A
:102E6000CB0197F908954ADF08F48FEF08950BD04E
:102E7000A9CF9ADF28F09FDF18F0952309F062CFE1
:102E800090CF1124EACFAFDFA0F3959FD1F3950F38
:102E900050E0551F629FF001729FBB27F00DB11DDE
:102EA000639FAA27F00DB11DAA1F649F6627B00D6E
:102EB000A11D661F829F2227B00DA11D621F739F57
:102EC000B00DA11D621F839FA00D611D221F749F65
:102ED0003327A00D611D231F849F600D211D822FAC
:102EE000762F6A2F11249F5750408AF0E1F08823F3
:102EF0004AF0EE0FFF1FBB1F661F771F881F915000
:102F00005040A9F79E3F510570F01CCFA6CF5F3F00
:102F1000ECF3983EDCF3869577956795B795F79532
:102F2000E7959F5FC1F7FE2B880F911D96958795BA
:102F300097F90895DB018F939F930E94FC17BF912F
:102F4000AF91A29F800D911DA39F900DB29F900DF8
:102F50001124089597FB072E16F4009407D077FDEF
:102F600009D00E94071807FC05D03EF49095819582
:102F70009F4F0895709561957F4F0895A1E21A2E95
:102F8000AA1BBB1BFD010DC0AA1FBB1FEE1FFF1F0D
:102F9000A217B307E407F50720F0A21BB30BE40B5D
:102FA000F50B661F771F881F991F1A9469F76095A4
:102FB0007095809590959B01AC01BD01CF0108955E
:102FC000052E97FB16F4009407D057FD0DD00E94F4
:102FD000BE1707FC09D07EF4909580957095619599
:102FE0007F4F8F4F9F4F0895509540953095219575
:102FF0003F4F4F4F5F4F08950E942118A59F900D9E
:10300000B49F900DA49F800D911D11240895AA1BBB
:10301000BB1B51E107C0AA1FBB1FA617B70710F0C3
:10302000A61BB70B881F991F5A95A9F780959095F5
:10303000BC01CD010895EE0FFF1F0590F491E02D26
:103040000994A29FB001B39FC001A39F01D0B29F7A
:10305000700D811D1124911D0895FC018827992769
:10306000E89421912032E9F3293010F02E30C8F392
:103070002B3241F02D3239F4689404C00E947C1840
:10308000820F911D219120532A30C0F31EF4909598
:1030900081959F4F0895FB01DC0102C001900D92C4
:1030A00041505040D8F70895FB01DC0101900D928A
:1030B0000020E1F70895FB019F01E8944230C4F03D
:1030C0004532B4F44A3029F497FB1EF4909581956B
:1030D0009F4F642F77270E940718805D8A330CF07A
:1030E000895D8193CB010097A1F716F45DE25193BE
:1030F0001082C9010C949A187AE0979F902D879FAF
:10310000802D910D11240895FB019F01423074F030
:10311000453264F4642F77270E940718805D8A3354
:103120000CF0895D8193CB010097A1F71082C90152
:103130000C949A18DC01FC01672F71917723E1F759
:10314000329704C07C916D9370836291AE17BF0774
:08315000C8F30895F894FFCFC5
:103158000000780380001121220A0C147372632F77
:10316800636F6D6D756E696361746F722E637070D5
:1031780000202D2000456E746572696E6720636FAC
:103188006E7374727563746F7220666F723A200082
:1031980053657269616C20696E697469616C697ADA
:1031A80065642E2000636F6D6D756E696361746F61
:1031B800720000000000D900CB00D5007372632FA5
:1031C80074696D6572302E637070002D2D2D2D0081
:1031D8006200645F74302000665F74302000645FB2
:1031E80074312000665F743120002D2D51554552F1
:1031F800592D2D0A002D2D442D2D007372632F6239
:10320800727573686C6573732E6370700066002046
:10321800640020720074696D657231207374617284
:1032280074007365745072657363616C6572000035
:103238000000009D02AC02BA026B03B203DB02DF9E
:1032480002B60200000000E302F20200032703E9CD
:10325800031F032303FC025F74696D6572305F66A8
:1032680061737450776D5F6F63723061746F705FF4
:10327800696E69740069746572617465007374615C
:103288007274007372632F736B657463682E696E52
:103298006F0053657269616C436F6D6D206F626A70
:1032A80065637420696E697469616C697A65642EF6
:1032B800200042727573686C657373206F626A656B
:1032C800637420696E697469616C697A65642E201B
:1032D80000204F435231413A2000204F435231429F
:1032E8003A0000000000B4109B0F561085106910BA
:0232F800A9101B
:00000001FF
