:100000000C9453000C9484000C9484000C94840091
:100010000C9484000C9484000C9484000C94840050
:100020000C9484000C9484000C9484000C94B40010
:100030000C9484000C9484000C9484000C94840030
:100040000C94D40C0C9484000C940E0F0C94510F4F
:100050000C9484000C9484000C9484000C94840010
:100060000C9484000C948400010204081020408049
:1000700001020408102001020408102004040404F2
:100080000404040402020202020203030303030342
:1000900000000000250028002B00000000002400C4
:1000A00027002A000D1011241FBECFEFD8E0DEBFBD
:1000B000CDBF14BE88E10FB6F89480936000109213
:1000C00060000FBE12E0A0E0B1E0E6E3FDE202C096
:1000D00005900D92A635B107D9F713E0A6E5B2E079
:1000E00001C01D92AC32B107E1F710E0C6EAD0E0E2
:1000F00004C02297FE010E940C16C43AD107C9F72A
:100100000E94AB0D0C9499160C94000010925D02A5
:1001100010925C0284E690E090935B0280935A0216
:1001200081E090E0909359028093580208952091C5
:10013000560230915702C901089584B18F6384B982
:10014000E0915C02F0915D02EA5FFE4F808185B92B
:10015000089570935B0260935A02089520915A02A9
:1001600030915B02C90108951F920F920FB60F9252
:1001700011245F936F937F938F939F93AF93BF935C
:10018000EF93FF9380915C0290915D0201969093B2
:100190005D0280935C0266E070E00E949915909386
:1001A0005D0280935C02E0915C02F0915D02EA5F87
:1001B000FE4F808185B9FF91EF91BF91AF919F91E3
:1001C0008F917F916F915F910F900FBE0F901F9055
:1001D0001895E0917D02F0917E020190F081E02D72
:1001E0008DE792E009948DE792E00C94730E8DE711
:1001F00092E00E94A20E08950F931F93CF93DF9376
:10020000CDB7DEB72E970FB6F894DEBF0FBECDBFC9
:100210008C0161E971E00E94D410D8011C961C92F7
:100220001E921B9761E971E0C8010E94121164E1FE
:1002300070E0C8010E949410F8011086178283E0D4
:1002400090E00E949A0BFC01D8011A969C938E9321
:1002500019978AE080831996ED91FC911A97128282
:10026000118282E090E00E94A90D8C0186E691E067
:10027000F8019183808340E855E260E070E08DE70B
:1002800092E00E948C0F10935F0200935E026CE07C
:1002900071E0CE0101960E94D410BE016F5F7F4FC6
:1002A0008DE792E00E94F60DCE0101960E94631048
:1002B00064E472E08DE792E00E942C0E4AE068E16F
:1002C00070E0CE0101960E945911BE016F5F7F4F11
:1002D0008DE792E00E94F60DCE0101960E94631018
:1002E00061E271E08DE792E00E942C0E65E271E020
:1002F000CE0101960E94D410BE016F5F7F4FCE01E8
:1003000008960E94081165E571E0CE0108960E94EA
:100310000A12BC018DE792E00E944B0ECE010896B6
:100320000E946310CE0101960E94631080915E02CC
:1003300090915F02892BA9F16CE071E0CE010196EA
:100340000E94D410BE016F5F7F4F8DE792E00E9444
:10035000F60DCE0101960E94631064E472E08DE711
:1003600092E00E942C0E4AE06BE170E0CE01019613
:100370000E945911BE016F5F7F4F8DE792E00E948E
:10038000F60DCE0101960E94631061E271E08DE7E7
:1003900092E00E942C0E60E471E08DE792E00E94F2
:1003A0005F0E2E960FB6F894DEBF0FBECDBFDF9165
:1003B000CF911F910F9108952F923F924F925F928C
:1003C0006F927F928F929F92AF92BF92CF92DF9265
:1003D000EF92FF920F931F93CF93DF93CDB7DEB7CA
:1003E0008C01ADB6BEB6782E612E88248394912CF4
:1003F00068C080915E0290915F02DC01ED91FC91FA
:100400000190F081E02D0995F82E682F872D962D0B
:100410000E94B211BAE0FB1254C03DB62EB6F801EC
:10042000848195819487838701972DB73EB7281BD8
:10043000390B0FB6F8943EBF0FBE2DBF8DB79EB7D8
:1004400001962C017C01CC24C394D12C0DC0B601A3
:10045000872D962D0E943812DC018C91F701819333
:100460007F01FFEFCF1ADF0AD8011B968D919C9177
:100470001C970197C816D90654F31996ED90FC9075
:100480001A9760E070E0872D962D0E943812FC01CB
:100490008081D7018C93C2010E941C16D801199645
:1004A000ED91FC911A979283818318969C928E927B
:1004B00017979101832F922D0FB6F8949EBF0FBE10
:1004C0008DBF80915E0290915F02DC01ED91FC9105
:1004D0000480F581E02D0995892B09F08ACF0FB6AC
:1004E000F894BEBE0FBEADBEDF91CF911F910F91AC
:1004F000FF90EF90DF90CF90BF90AF909F908F9044
:100500007F906F905F904F903F902F900895FF9253
:100510000F931F93CF93DF93EC0183E090E00E9451
:100520009A0BF92E082F192FE985FA858081F80199
:100530008083E985FA8581819281F80192838183A4
:1005400061E971E0CE010E94121118861F82E985CF
:10055000FA858AE08083E985FA8512821182802FEC
:100560009F2DDF91CF911F910F91FF900895FC0176
:10057000878190850895DC01ED91FC911197189683
:100580006D917C9119970084F185E02D099580E0AB
:1005900090E00895DC01ED91FC910084F185E02D5F
:1005A000099580E090E00895FC018085918508958B
:1005B000DC0177FD1BC012968D919C9113976817F3
:1005C0007907A1F013967C936E931297709389002C
:1005D00060938800ED91FC91119714966D917C9138
:1005E00015970680F781E02DCD0109948FEF9FEFDD
:1005F0000895FC01828193810895FC018481958195
:100600000895DC01ED91FC91119718966D917C9104
:1006100019970084F185E02D099580E090E0089518
:10062000DC01ED91FC910084F185E02D099580E0DD
:1006300090E00895FC01808591850895DC016E3F6E
:100640007105C0F412968D919C91139768177907E4
:1006500089F013967C936E93129767BDED91FC9190
:10066000119714966D917C9115970680F781E02D76
:10067000CD0109948FEF9FEF0895FC018281938152
:100680000895FC01848195810895AF92BF92CF9225
:10069000DF92EF92FF920F931F93CF93DF93EC01C2
:1006A0006436710540F57D836C83882777FD8095DE
:1006B000982F4A815B818A01222717FD2095322FCE
:1006C0003F932F931F930F93A12CB12C650114E638
:1006D000E12EF12C00E010E020E030E0A9010E94C2
:1006E0005C126E837F8368BD0F900F900F900F9008
:1006F00020E030E002C02FEF3FEFC901DF91CF9142
:100700001F910F91FF90EF90DF90CF90BF90AF902F
:100710000895AF92BF92CF92DF92EF92FF920F9324
:100720001F93CF93DF93EC016536710558F57D83F8
:100730006C83882777FD8095982F4A815B818A0199
:10074000222717FD2095322F3F932F931F930F934E
:10075000A12CB12C650114E6E12EF12C00E010E093
:1007600020E030E0A9010E945C127F836E837093C9
:100770008B0060938A000F900F900F900F9020E0F5
:1007800030E002C02FEF3FEFC901DF91CF911F9101
:100790000F91FF90EF90DF90CF90BF90AF900895B2
:1007A000FC0160347105E9F03CF46115710569F0F4
:1007B0006830710541F511C0611581E07807A9F035
:1007C000611584E07807F9F414C08091810081609C
:1007D000809381001186108613C080918100826011
:1007E0000BC080918100836007C08091810084608C
:1007F00003C080918100856080938100718760874C
:1008000020E030E002C021E030E0C9010895FC01A1
:1008100060347105D1F03CF46115710569F0683000
:10082000710509F50FC0611581E0780789F0611540
:1008300084E07807C1F40FC085B5816085BD11865D
:1008400010860EC085B5826008C085B5836005C07E
:1008500085B5846002C085B5856085BD7187608778
:1008600020E030E002C021E030E0C9010895EFE669
:10087000F0E0208122602083229AFC0122813381D2
:1008800030938900209388008681978190938B0014
:1008900080938A00A1E8B0E01C92E0E8F0E01082CA
:1008A00010928500109284008081806280838C91F8
:1008B00088618C938081836080838081808380E0E5
:1008C00090E008950F931F93CF93DF938C01DC0189
:1008D00013961C921E92129715961C921E921497B4
:1008E00061E971E006960E94D4108AE090E00E94CF
:1008F000A90DEC0183EC91E09983888384EF91E06A
:100900009B838A8360E570E0CE010E94890319868B
:100910001886CE010E943704D0936B02C0936A02FE
:10092000E881F9810480F581E02D60E177E2CE0174
:10093000099580916A0290916B02DC01ED91FC9126
:100940000680F781E02D6FE570E009958AE090E080
:100950000E94A90DEC0187ED91E09983888361E005
:1009600085E00E94620B8AEF90E09B838A8382E39A
:1009700090E09D838C8386E990E09F838E838AEF4D
:1009800087BD8E8188BD81E284BD88E085BDD0931E
:100990006902C0936802E881F9810480F581E02D45
:1009A00068EC70E0CE01099580916802909169022F
:1009B000DC01ED91FC910680F781E02D65E070E0AF
:1009C000099581E090E00E94A90DEC010E9486004B
:1009D000D0936702C093660261E070E0CE010E948E
:1009E000A90080916602909167020E949D0083E0B9
:1009F00090E00E949A0BFC01D8018D939C938EE6A7
:100A000080838091680290916902DC01ED91FC91F4
:100A10000280F381E02D60E070E0DF91CF911F91C3
:100A20000F9109946F927F928F929F92AF92BF9293
:100A3000CF92DF92EF92FF920F931F93CF93DF93AA
:100A400000D000D0CDB7DEB73B017A01FB010085B5
:100A5000118582819381B801681B790B882777FD06
:100A60008095982F0E941F14F301248135814681BF
:100A700057810E9426155B016C0120E030E040E8C0
:100A80005FE37B2D9D2D0E94221587FD1FC06A2DDF
:100A90007B2D8C2D9D2D0E945A149B01AC01B80119
:100AA000882777FD8095982F29833A834B835C8331
:100AB0000E941F1429813A814B815C810E94871317
:100AC0000E94EC13F3017187608754C0F1E0EF16C8
:100AD000F10409F048C0F30122853385448555852A
:100AE0006A2D7B2D8C2D9D2D0E9488136B017C011E
:100AF000862F9D2DAE2DBF2DF30182879387A4876E
:100B0000B58720E030E040E85FE36C2D7D2D8E2D31
:100B10009F2D0E94221587FD2DC06C2D7D2D8E2DC1
:100B20009F2D0E945A144B015C01B801882777FD64
:100B30008095982F0E941F14A50194010E9487138D
:100B40000E94EC13F30171876087A50194016C2D5D
:100B50007D2D8E2D9F2D0E948713F3016287738751
:100B60008487958707C0EF2829F401501109F30104
:100B7000118700870F900F900F900F90DF91CF910A
:100B80001F910F91FF90EF90DF90CF90BF90AF90AB
:100B90009F908F907F906F9008950F931F93CF93A6
:100BA000DF93CDB7DEB7C359D1090FB6F894DEBFD6
:100BB0000FBECDBF8C01FA018081863689F034F4F6
:100BC0008236E9F1843609F006C21EC0803709F486
:100BD00078C0823709F461C08E3609F0FCC149C083
:100BE00080916A0290916B02DC012D913C916181B0
:100BF0007281D9011496ED91FC9115970995809118
:100C00006A0290916B022EC080916A0290916B02F1
:100C1000DC012D913C9161817281D9011696ED9193
:100C2000FC911797099580916A0290916B02DC0103
:100C3000ED91FC910484F585E02D09953CC08091EF
:100C4000680290916902DC012D913C916181728171
:100C5000D9011496ED91FC91159709958091680240
:100C600090916902DC01ED91FC910284F385E02D05
:100C7000E4CF8091680290916902DC012D913C9152
:100C800061817281D9011696ED91FC9117970995B2
:100C90008091680290916902CACF618172818091CE
:100CA0006602909167020E94A9008091660290916D
:100CB00067020E94AE004AE0BC01C8010E945911BF
:100CC00094C16CE671E0CE0101960E94D41060E9F7
:100CD00071E0CE0108960E94D41080916602909136
:100CE00067020E9497004AE0BC01CE010F960E9465
:100CF000591161E771E0CE0146960E94D41060E977
:100D000071E0CE014D960E94D410809166029091C0
:100D100067020E94AE004AE0BC01CE0184960E94A8
:100D2000591160EB71E0CE018B960E94D41060E9FE
:100D300071E0CE01C2960E94D41080916802909119
:100D40006902DC01ED91FC910484F585E02D0995A3
:100D50004AE0BC01CE01C9960E94591163E771E0D7
:100D6000CE01805C9F4F0E94D41060E971E0CE01FB
:100D7000895B9F4F0E94D410809168029091690214
:100D8000DC01ED91FC910284F385E02D09954AE0A8
:100D9000BC01CE01825B9F4F0E94591168E771E050
:100DA000CE018B5A9F4F0E94D41060E971E0CE01B2
:100DB000845A9F4F0E94D41080916A0290916B02D6
:100DC000DC01ED91FC910484F585E02D09954AE064
:100DD000BC01CE018D599F4F0E9459116DE771E002
:100DE000CE0186599F4F0E94D41060E971E0CE0178
:100DF0008F589F4F0E94D41080916A0290916B028D
:100E0000DC01ED91FC910284F385E02D09954AE027
:100E1000BC01CE0188589F4F0E94591162E871E0D1
:100E2000CE018A579F4F0E94D41067E871E0CE012F
:100E300083579F4F0E94D410BE0163577F4FCE014E
:100E400081589F4F0E940811BE016A577F4FCE0103
:100E500081589F4F0E94F411BE0168587F4F0E9435
:100E6000F411BE016F587F4F0E94F411BE01665904
:100E70007F4F0E94F411BE016D597F4F0E94F41103
:100E8000BE01645A7F4F0E94F411BE016B5A7F4F1E
:100E90000E94F411BE01625B7F4F0E94F411BE01FB
:100EA000695B7F4F0E94F411BE01605C7F4F0E941E
:100EB000F411BE01675C7F4F0E94F411BE016E5CAD
:100EC0007F4F0E94F411BE01655D7F4F0E94F411B7
:100ED000BE016C5D7F4F0E94F411BE01635E7F4FC7
:100EE0000E94F411BE016A5E7F4F0E94F411BE01A0
:100EF000615F7F4F0E94F411BE01685F7F4F0E94C7
:100F0000F411BE016F5F7F4F0E94F411BC01C80154
:100F10000E940811CE0181589F4F0E946310CE019C
:100F200083579F4F0E946310CE018A579F4F0E94A4
:100F30006310CE0188589F4F0E946310CE018F58D6
:100F40009F4F0E946310CE0186599F4F0E946310ED
:100F5000CE018D599F4F0E946310CE01845A9F4F3E
:100F60000E946310CE018B5A9F4F0E946310CE01E6
:100F7000825B9F4F0E946310CE01895B9F4F0E944E
:100F80006310CE01805C9F4F0E946310CE01C99612
:100F90000E946310CE01C2960E946310CE018B9610
:100FA0000E946310CE0184960E946310CE014D967C
:100FB0000E946310CE0146960E946310CE010F96E8
:100FC0000E946310CE0108960E946310CE01019624
:100FD0000E9463100AC081E090E0FB019583848346
:100FE00062E971E0C8010E94D410C801CD56DF4FFC
:100FF0000FB6F894DEBF0FBECDBFDF91CF911F912A
:101000000F9108950F931F93CF93DF93CDB7DEB762
:101010006C970FB6F894DEBF0FBECDBF8C01DC011C
:1010200012968D919C911397892B09F427C1809179
:10103000640290916502FC014085518522813381D3
:1010400024173507BCF0E0916202F09163024085FD
:10105000518522813381241735072CF1E0916002FC
:10106000F091610240855185228133812417350733
:10107000D4F0F2C041E050E0BC01C8010E9412056A
:1010800080916A0290916B02DC01ED91FC91A0913C
:101090006402B091650218966D917C911997048055
:1010A000F581E02D09956091620270916302FB0168
:1010B000208531858281938182179307C4F441E0B2
:1010C00050E0C8010E94120580916A0290916B0263
:1010D000DC01ED91FC91A0916202B091630218963F
:1010E0006D917C9119970680F781E02D09956091AB
:1010F000600270916102FB012085318582819381BC
:10110000821793078CF441E050E0C8010E94120559
:10111000E0916002F09161026085718580916602C4
:10112000909167020E94A90068E971E0CE010196E2
:101130000E94D410BE016F5F7F4F8DE792E00E9446
:10114000F60DCE0101960E94631064E472E08DE713
:1011500092E00E942C0E4AE063E970E0CE01019615
:101160000E945911BE016F5F7F4F8DE792E00E9490
:10117000F60DCE0101960E94631061E271E08DE7E9
:1011800092E00E942C0E80916602909167020E946C
:10119000AE004AE0BC01CE0101960E945911809137
:1011A0006A0290916B02DC01ED91FC910484F5855B
:1011B000E02D09954AE0BC01CE0108960E94591124
:1011C00080916A0290916B02DC01ED91FC910284A6
:1011D000F385E02D09954AE0BC01CE0146960E94B8
:1011E00059116AEA71E0CE010F960E94D410BE0137
:1011F0006A5E7F4FCE010F960E94F4116CEA71E097
:101200000E940A12BE01685F7F4F0E94F4116FEACC
:1012100071E00E940A12BE016F5F7F4F0E94F411BD
:10122000BC018DE792E00E944B0ECE010F960E940A
:101230006310CE0146960E946310CE0108960E946C
:101240006310CE0101960E94631064E670E080E0B6
:1012500090E00E94480D30C0F801138212820E9473
:10126000350C80916202909163020E94350C80914E
:101270006002909161020E94350C1EC0D801149644
:101280008D919C911597892BB9F44D915C91B80182
:10129000CE0101960E94CD05BE016F5F7F4FC80150
:1012A00006960E94F110CE0101960E94631081E023
:1012B00090E0F801958384836C960FB6F894DEBFB6
:1012C0000FBECDBFDF91CF911F910F910895FC010B
:1012D00071836083158214820895CF93DF93EC01AC
:1012E0006A5F7F4F0E940811CE01DF91CF91089570
:1012F000CF93DF93CDB7DEB727970FB6F894DEBF55
:101300000FBECDBF68E971E0CE0101960E94D410F6
:10131000BE016F5F7F4F8DE792E00E94F60DCE0118
:1013200001960E94631064E472E08DE792E00E94EF
:101330002C0E4AE06DED70E0CE0101960E9459112D
:10134000BE016F5F7F4F8DE792E00E94F60DCE01E8
:1013500001960E94631061E271E08DE792E00E94C5
:101360002C0E62EB71E08DE792E00E945F0E80919F
:101370006A0290916B02DC01ED91FC910280F38195
:10138000E02D60E070E0099527960FB6F894DEBF77
:101390000FBECDBFDF91CF9108950F931F93CF93D1
:1013A000DF93CDB7DEB727970FB6F894DEBF0FBE39
:1013B000CDBF8091700290917102892B59F48DE01C
:1013C00090E00E94A90D8C010E94FC001093710214
:1013D0000093700267EE71E0CE0101960E94D41076
:1013E000BE016F5F7F4F8DE792E00E94F60DCE0148
:1013F00001960E94631064E472E08DE792E00E941F
:101400002C0E4AE065E270E0CE0101960E9459116F
:10141000BE016F5F7F4F8DE792E00E94F60DCE0117
:1014200001960E94631061E271E08DE792E00E94F4
:101430002C0E66EF71E08DE792E00E945F0E8091C6
:10144000720290917302892B59F48DE090E00E9412
:10145000A90D8C010E946204109373020093720222
:1014600080917202909173020E94780967EE71E098
:10147000CE0101960E94D410BE016F5F7F4F8DE7B1
:1014800092E00E94F60DCE0101960E94631064E482
:1014900072E08DE792E00E942C0E4AE06EE270E06E
:1014A000CE0101960E945911BE016F5F7F4F8DE7FB
:1014B00092E00E94F60DCE0101960E94631061E257
:1014C00071E08DE792E00E942C0E66E172E08DE7FC
:1014D00092E00E945F0E27960FB6F894DEBF0FBE13
:1014E000CDBFDF91CF911F910F9108950F931F935F
:1014F000CF93DF93CDB7DEB72E970FB6F894DEBF4C
:101500000FBECDBF80917002909171020E94B70210
:101510008C0181309105A9F4809170029091710243
:101520000E94870290936F0280936E02BC018091AB
:101530007202909173020E94670910936D020093EA
:101540006C0280917202909173020E940208809155
:101550006C0290916D02019709F0A3C067EE71E0F3
:10156000CE0108960E94D410BE01685F7F4F8DE7C0
:1015700092E00E94F60DCE0108960E94631064E48A
:1015800072E08DE792E00E942C0E4AE062E470E087
:10159000CE0108960E945911BE01685F7F4F8DE70A
:1015A00092E00E94F60DCE0108960E94631061E25F
:1015B00071E08DE792E00E942C0E609172027091B2
:1015C0007302CE0108960E946D09BE01685F7F4FCD
:1015D0008DE792E00E944B0ECE0108960E946310A8
:1015E00067EE71E0CE0108960E94D410BE01685FDC
:1015F0007F4F8DE792E00E94F60DCE0108960E9483
:10160000631064E472E08DE792E00E942C0E4AE0E1
:1016100063E470E0CE0108960E945911BE01685F34
:101620007F4F8DE792E00E94F60DCE0108960E9452
:10163000631061E271E08DE792E00E942C0E009150
:101640008A0010918B0060918800709189004AE0B7
:10165000CE0108960E942C1165E372E0CE0101963E
:101660000E94D410BE01685F7F4FCE0101960E9498
:10167000F4116EE372E00E940A12B8010E94271270
:10168000BC018DE792E00E944B0ECE0101960E94B4
:101690006310CE0108960E94631010926D021092A2
:1016A0006C022E960FB6F894DEBF0FBECDBFDF9151
:1016B000CF911F910F9108958091700290917102C6
:1016C0000C94DC01CF93DF9390E0FC01E859FF4FCD
:1016D0004491FC01E458FF4F8491882341F190E04C
:1016E000880F991FFC01E656FF4F25913491D901CF
:1016F00080579F4FFC0185919491C82FD92F9FB798
:10170000F8948C91611106C0409584238C93888154
:10171000842308C0623041F4242F209582238C93C7
:101720008881842B888302C0842B8C939FBFDF9198
:10173000CF9108950F931F93CF93DF93823091053C
:1017400010F482E090E0E0912A03F0912B0320E076
:1017500030E0C0E0D0E023C04081518148175907F4
:10176000A8F04817590761F482819381209719F0F6
:101770009B838A832EC090932B0380932A0329C0D6
:101780002115310529F04217530710F0A90102C0B5
:10179000BE01DF0102811381EF019A01F801309748
:1017A000D9F62115310509F1281B390B24303105F3
:1017B00090F412968D919C9113976115710521F00B
:1017C000FB019383828304C090932B0380932A03AD
:1017D000FD01329644C0FD01E20FF31F8193919306
:1017E000225031092D933C933AC020912803309127
:1017F0002903232B41F420910201309103013093FE
:101800002903209328032091000130910101211523
:10181000310541F42DB73EB74091040150910501C7
:10182000241B350BE0912803F0912903E217F307FD
:10183000A0F42E1B3F0B2817390778F0AC014E5F40
:101840005F4F2417350748F04E0F5F1F5093290351
:10185000409328038193919302C0E0E0F0E0CF0130
:10186000DF91CF911F910F910895EF92FF920F9307
:101870001F93CF93DF93009709F48FC0DC01129779
:1018800013961C921E921297E0902A03F0902B035D
:10189000E114F10489F42D913C911197280F391F1F
:1018A00080912803909129038217930789F5B093BB
:1018B0002903A093280371C0E70120E030E001C0B4
:1018C000EA01CA17DB0738F44A815B819E014115A2
:1018D0005105B1F722C0BC0162507109FB01D383ED
:1018E000C28300811181AC01400F511F4C175D076D
:1018F00061F448815981400F511F4E5F5F4F518302
:1019000040834A815B81538342832115310529F449
:10191000B0932B03A0932A0340C0F901B383A283A1
:10192000E90169917991C60FD71FAC17BD0779F40A
:10193000DC015E914E91460F571F4E5F5F4F518302
:10194000408312968D919C91139793838283A0E09C
:10195000B0E002C0D7017C01F7018281938100973A
:10196000C9F7C701029620813181820F931F209110
:101970002803309129032817390779F4109729F49F
:1019800010922B0310922A0304C013961C921E92ED
:101990001297F0922903E0922803DF91CF911F91D3
:1019A0000F91FF90EF9008951F920F920FB60F9234
:1019B00011242F933F938F939F93AF93BF93809165
:1019C000740290917502A0917602B09177023091E5
:1019D0007C02232F2D5F2D3720F40196A11DB11D10
:1019E00005C0232F2A570296A11DB11D20937C020A
:1019F0008093740290937502A0937602B09377025D
:101A00008091780290917902A0917A02B0917B0244
:101A10000196A11DB11D8093780290937902A09345
:101A20007A02B0937B02BF91AF919F918F913F91CA
:101A30002F910F900FBE0F901F9018950F931F932B
:101A40009FB7F894009178021091790220917A0260
:101A500030917B0286B5A89B06C08F3F21F00F5FB7
:101A60001F4F2F4F3F4F9FBF322F212F102F002787
:101A7000080F111D211D311D42E0000F111F221FF3
:101A8000331F4A95D1F7B801C9011F910F910895ED
:101A9000CF92DF92EF92FF92CF93DF936B017C01A5
:101AA0000E941E0DEB010EC00E941E0D6C1B7D0BD3
:101AB000683E734038F081E0C81AD108E108F108A7
:101AC000C851DC4FC114D104E104F10469F7DF917E
:101AD000CF91FF90EF90DF90CF900895789484B5E8
:101AE000826084BD84B5816084BD85B5826085BD1A
:101AF00085B5816085BDEEE6F0E080818160808300
:101B0000E1E8F0E0108280818260808380818160E2
:101B10008083E0E8F0E0808181608083E1EBF0E0A9
:101B2000808184608083E0EBF0E08081816080834D
:101B3000EAE7F0E080818460808380818260808336
:101B40008081816080838081806880831092C10061
:101B500008950C949A0B0E946E0D0E94CD09C8E462
:101B6000DFE00E94760A2097E1F30E94480FF9CF48
:101B7000CF92DF92EF92FF920F931F93CF93DF9359
:101B80006C01EB017A01E60EF71E00E010E00BC0DD
:101B90006991D601ED91FC910190F081E02DC60193
:101BA0000995080F191FCE15DF0591F7C801DF91C0
:101BB000CF911F910F91FF90EF90DF90CF900895FC
:101BC0006115710581F0DB010D900020E9F7AD0191
:101BD00041505109461B570BDC01ED91FC910280ED
:101BE000F381E02D099480E090E00895AF92BF92D8
:101BF000CF92DF92EF92FF920F931F93CF93DF93D9
:101C00007C016B0100E010E0C0E0D0E011C0D70122
:101C1000ED91FC91A080B180B801C6010E944B12E9
:101C2000682FC701F5010995C80FD91F0F5F1F4F16
:101C3000D60114968D919C9115970817190738F3C2
:101C4000CE01DF91CF911F910F91FF90EF90DF9028
:101C5000CF90BF90AF9008950C94E00DDC01ED9112
:101C6000FC910190F081E02D09940F931F93CF9385
:101C7000DF93EC016DE00E942E0E8C016AE0CE0134
:101C80000E942E0E9C01200F311FC901DF91CF91C0
:101C90001F910F9108950F931F93CF93DF93EC0142
:101CA0000E94F60D8C01CE010E94350E9C01200F82
:101CB000311FC901DF91CF911F910F9108950F93AB
:101CC0001F93CF93DF93EC010E94E00D8C01CE01B6
:101CD0000E94350E9801280F391FC901DF91CF915D
:101CE0001F910F910895FC0184859585FC01E05CAE
:101CF000FF4F20813181FC01EE5BFF4F808191819C
:101D0000281B390B2F733327C9010895FC018485E3
:101D10009585FC01E05CFF4F40815181FC01EE5B49
:101D2000FF4F208131814217530741F00190F0812C
:101D3000E02DE80FF91F208130E002C02FEF3FEFC8
:101D4000C9010895FC0184859585FC01E05CFF4F85
:101D500040815181FC01EE5BFF4F208131814217B0
:101D6000530781F0A081B181A80FB91F8C91208108
:101D700031812F5F3F4F2F73332731832083282FEB
:101D800030E002C02FEF3FEFC9010895FC0181A1AF
:101D9000882329F0A489B5898C9186FFFBCF11A2F5
:101DA0000895CF93DF93FC0126853785D901A05C88
:101DB000BF4F8D919C91119701968F739927E901DF
:101DC000CE5BDF4F4881598184179507D9F30D9079
:101DD000BC91A02DA20FB31F6C93A685B785A05C04
:101DE000BF4F11969C938E93A689B7892C9181E061
:101DF00090E0078C02C0880F991F0A94E2F7282B05
:101E00002C9381E081A30488F589E02D8081806492
:101E1000808381E090E0DF91CF9108951F920F922F
:101E20000FB60F9211242F933F934F938F939F934D
:101E3000EF93FF938091C00082FD1CC04091C600CB
:101E4000809123039091240301968F739927209109
:101E50002503309126038217930771F0E091230345
:101E6000F0912403ED51FD4F408390932403809320
:101E7000230302C08091C600FF91EF919F918F9143
:101E80004F913F912F910F900FBE0F901F9018957B
:101E90008DE792E00E94730E892B11F00C945C0B7D
:101EA00008951F920F920FB60F9211242F933F9314
:101EB0008F939F93EF93FF932091DF023091E00285
:101EC0008091E1029091E2022817390731F4809164
:101ED000C1008F7D8093C10014C0E091E102F091B8
:101EE000E202E156FD4F20818091E1029091E202F1
:101EF00001968F7399279093E2028093E1022093D9
:101F0000C600FF91EF919F918F913F912F910F907C
:101F10000FBE0F901F901895CF92DF92EF92FF9215
:101F2000CF93DF93EC016A017B01411581EE5807E5
:101F300061057105F9F0EC89FD8981E090E008A068
:101F400002C0880F991F0A94E2F7808360E079E06D
:101F50008DE390E0A70196010E94AD152150310953
:101F6000410951095695479537952795211580E1E7
:101F7000380798F0EC89FD89108260E874E88EE1FA
:101F800090E0A70196010E94AD1521503109410949
:101F900051095695479537952795E889F9893083F2
:101FA000EA89FB89208319A2EE89FF89408181E0BB
:101FB00090E09C010C8C02C0220F331F0A94E2F7C0
:101FC000422B4083EE89FF8940819C010D8C02C029
:101FD000220F331F0A94E2F7422B4083EE89FF89D8
:101FE00040819C010E8C02C0220F331F0A94E2F73D
:101FF000422B4083EE89FF8920810F8C02C0880F1D
:10200000991F0A94E2F7809582238083DF91CF9114
:10201000FF90EF90DF90CF90089510928002109281
:102020007F0288EE93E0A0E0B0E08093810290937D
:102030008202A0938302B09384028AE492E0909398
:102040007E0280937D0283EE92E090938A028093D9
:1020500089028FE992E090938C0280938B0285EC49
:1020600090E090938E0280938D0284EC90E09093A8
:10207000900280938F0280EC90E090939202809384
:10208000910281EC90E0909394028093930282EC11
:1020900090E0909396028093950286EC90E0909366
:1020A00098028093970284E08093990283E0809362
:1020B0009A0287E080939B0285E080939C0281E0F6
:1020C00080939D020895FC01808191810C94350CD0
:1020D000CF93DF93EC0188819981009711F00E94E2
:1020E000350C198218821D821C821B821A82DF9194
:1020F000CF9108950F931F93CF93DF93EC018B0142
:102100006F5F7F4F888199810E94A312009731F001
:10211000998388831B830A8381E001C080E0DF917B
:10212000CF911F910F910895CF93DF93EC01888198
:102130009981892B31F08A819B818617970708F056
:102140000CC0CE010E947A10882349F08C819D81B9
:10215000892B19F4E881F981108281E001C080E0C7
:10216000DF91CF910895EF92FF920F931F93CF933A
:10217000DF93EC017B018A01BA010E949410811166
:1021800004C0CE010E94681007C01D830C83B701F4
:10219000888199810E944316CE01DF91CF911F91D2
:1021A0000F91FF90EF900895DC0111961C921E9202
:1021B00013961C921E92129715961C921E921497BB
:1021C00016961C926115710559F0DB010D900020E7
:1021D000E9F7AD0141505109461B570B0C94B31060
:1021E0000895CF93DF93EC01FB018617970761F009
:1021F000608171816115710529F0448155810E94CA
:10220000B31002C00E946810CE01DF91CF910895F3
:10221000FC011182108213821282158214821682AE
:102220000C94F110CF93DF93D82FC92F611571054E
:1022300061F0DB010D900020E9F7AD01415051093B
:10224000461B570B0E94B31002C00E9468108D2FCE
:102250009C2FDF91CF9108950F931F93CF93DF931E
:10226000CDB7DEB761970FB6F894DEBF0FBECDBF16
:102270008C01CB01F8011182108213821282158227
:102280001482168250E0BE016F5F7F4F0E9473166A
:10229000BE016F5F7F4FC8010E94121161960FB699
:1022A000F894DEBF0FBECDBFDF91CF911F910F918C
:1022B00008950F931F93CF93DF93CDB7DEB7629747
:1022C0000FB6F894DEBF0FBECDBF8C01CB01F80175
:1022D000118210821382128215821482168250E0BB
:1022E000BE016F5F7F4F0E944A16BE016F5F7F4F36
:1022F000C8010E94121162960FB6F894DEBF0FBE9D
:10230000CDBFDF91CF911F910F910895EF92FF9272
:102310000F931F93CF93DF93EC017B010C811D8101
:102320006115710511F480E016C04115510591F059
:10233000040F151FB8010E9494108823A1F328816F
:1023400039818C819D81B701820F931F0E944316B2
:102350001D830C8381E0DF91CF911F910F91FF903E
:10236000EF900895CF93DF9300D0CDB7DEB76983A8
:102370001A8241E050E0BE016F5F7F4F0E948611DC
:102380000F900F90DF91CF910895EF92FF920F93EE
:102390001F93CF93DF9300D000D000D0CDB7DEB72E
:1023A0007C01CB014AE050E08E010F5F1F4FB80166
:1023B0000E947316F80101900020E9F7AF01415027
:1023C0005109401B510BB801C7010E948611269686
:1023D0000FB6F894DEBF0FBECDBFDF91CF911F9136
:1023E0000F91FF90EF900895CF93DF93D82FC92FCF
:1023F000FB0144815581608171810E9486118111A8
:1024000004C08D2F9C2F0E9468108D2F9C2FDF9170
:10241000CF910895CF93DF93D82FC92F6115710500
:1024200069F0DB010D900020E9F7AD014150510941
:10243000461B570B0E948611811104C08D2F9C2FC3
:102440000E9468108D2F9C2FDF91CF910895CF931C
:10245000DF93D82FC92F0E94C511811104C08D2F81
:102460009C2F0E9468108D2F9C2FDF91CF91089593
:10247000FC01248135816217730720F480819181EA
:10248000009729F41092270367E273E002C0680FF7
:10249000791FCB010895FC012481358162177307F0
:1024A00048F480819181009729F0FC01E60FF71F25
:1024B0008081089580E008954F925F926F927F929D
:1024C000AF92BF92CF92DF92EF92FF920F931F9342
:1024D000CF93DF93CDB7DEB729013A01621B730BAF
:1024E000840B950B29893A894B895C892A193B0908
:1024F0004C095D09298B3A8B4B8B5C8B9B01AC01A2
:1025000069897A898B899C890E948915E418F50864
:1025100006091709A80197010E94CF152A0D3B1D36
:102520004C1D5D1DB901CA01DF91CF911F910F9123
:10253000FF90EF90DF90CF90BF90AF907F906F9023
:102540005F904F9008958F929F92AF92BF92CF92DB
:10255000DF92EF92FF920F931F93CF93DF93EC01E3
:10256000009779F4CB01DF91CF911F910F91FF90EC
:10257000EF90DF90CF90BF90AF909F908F900C9492
:102580009A0BDC01A60FB71FFC013297AE17BF07ED
:1025900018F4C0E0D0E0ADC0008111810617170724
:1025A000B0F00530110508F4A4C0C80104978617DF
:1025B000970708F49EC002501109061B170B0D93D4
:1025C0001D9371836083CD010E94350C92C07B0105
:1025D000E01AF10A5C01A00EB11EE0912A03F0910D
:1025E0002B03812C912C80E090E04CC0EA15FB0578
:1025F000F1F5408151816A0122E0C20ED11CCE1456
:10260000DF04A8F19A012E193F097901690132E02E
:10261000C30ED11C2EEFA22EBB24BA94AC0EBD1E4D
:1026200025E0C216D10478F04281538113965C9361
:102630004E9312971196FC92EE92F501718360838E
:102640003A2F2B2F09C00E5F1F4F040F151FD50106
:102650000D931C9332812381009721F0FC0132837A
:10266000238347C030932A0320932B0342C08081E9
:1026700091818816990608F44C0152814381CF015B
:10268000E52FF42F309709F0B1CF80912803909176
:1026900029038A159B05F1F486169706D8F48091D4
:1026A000000190910101009741F48DB79EB72091F0
:1026B000040130910501821B930BA817B90708F09C
:1026C00068CFB0932903A0932803FE01329771834A
:1026D00060830FC0CB010E949A0B7C01009709F424
:1026E00058CFA801BE010E943A16CE010E94350CB7
:1026F000E701CE01DF91CF911F910F91FF90EF90F5
:10270000DF90CF90BF90AF909F908F9008955058DA
:10271000BB27AA270ED045C136D130F03BD120F0DF
:1027200031F49F3F11F41EF42BC10EF4E095E7FB4A
:10273000F8C0E92F47D180F3BA17620773078407FF
:10274000950718F071F49EF576C10EF4E0950B2E06
:10275000BA2FA02D0B01B90190010C01CA01A001F3
:102760001124FF27591B99F0593F50F4503E68F14E
:102770001A16F040A22F232F342F4427585FF3CF8F
:10278000469537952795A795F0405395C9F77EF460
:102790001F16BA0B620B730B840BBAF09150A1F0A9
:1027A000FF0FBB1F661F771F881FC2F70EC0BA0F2F
:1027B000621F731F841F48F4879577956795B795B7
:1027C000F7959E3F08F0B3CF9395880F08F09927AF
:1027D000EE0F97958795089504D06894B1112CC198
:1027E0000895F8D088F09F5790F0B92F9927B751E6
:1027F000A0F0D1F0660F771F881F991F1AF0BA95C5
:10280000C9F712C0B13081F016D1B1E0089513C1FB
:10281000672F782F8827B85F39F0B93FCCF38695BA
:1028200077956795B395D9F73EF490958095709517
:1028300061957F4F8F4F9F4F0895E89409C097FB94
:102840003EF490958095709561957F4F8F4F9F4F87
:102850009923A9F0F92F96E9BB279395F6958795CB
:1028600077956795B795F111F8CFFAF4BB0F11F48E
:1028700060FF1BC06F5F7F4F8F4F9F4F16C0882335
:1028800011F096E911C0772321F09EE8872F762F6B
:1028900005C0662371F096E8862F70E060E02AF0AC
:1028A0009A95660F771F881FDAF7880F9695879598
:1028B00097F90895A9D080F09F3740F491110EF058
:1028C000BBC060E070E080E89FEB089526F41B1623
:1028D000611D711D811D2BC045C0990F0008550F4A
:1028E000AA0BE0E8FEEF16161706E807F907C0F096
:1028F00012161306E407F50798F0621B730B840B9E
:10290000950B39F40A2661F0232B242B252B21F477
:1029100008950A2609F4A140A6958FEF811D811D17
:10292000089597F99F6780E870E060E00895882334
:1029300071F4772321F09850872B762F07C06623F8
:1029400011F499270DC09051862B70E060E02AF0B9
:102950009A95660F771F881FDAF7880F96958795E7
:1029600097F908959F3F31F0915020F4879577951E
:102970006795B795880F911D9695879597F9089556
:102980009FEF80EC089500240A9416161706180687
:102990000906089500240A94121613061406050663
:1029A0000895092E0394000C11F4882352F0BB0FF4
:1029B00040F4BF2B11F460FF04C06F5F7F4F8F4F57
:1029C0009F4F089557FD9058440F551F59F05F3F92
:1029D00071F04795880F97FB991F61F09F3F79F041
:1029E00087950895121613061406551FF2CF4695C3
:1029F000F1DF08C0161617061806991FF1CF869545
:102A00007105610508940895E5DFA0F0BEE7B917E8
:102A100088F4BB279F3860F41616B11D672F782FF6
:102A20008827985FF7CF869577956795B11D939521
:102A30009639C8F30895E894BB2766277727CB011A
:102A400097F908954ADF08F48FEF08950BD0A9CFC6
:102A50009ADF28F09FDF18F0952309F062CF90CF1E
:102A60001124EACFAFDFA0F3959FD1F3950F50E08B
:102A7000551F629FF001729FBB27F00DB11D639F30
:102A8000AA27F00DB11DAA1F649F6627B00DA11DD6
:102A9000661F829F2227B00DA11D621F739FB00D7C
:102AA000A11D621F839FA00D611D221F749F3327EC
:102AB000A00D611D231F849F600D211D822F762F85
:102AC0006A2F11249F5750408AF0E1F088234AF082
:102AD000EE0FFF1FBB1F661F771F881F91505040CE
:102AE000A9F79E3F510570F01CCFA6CF5F3FECF3D6
:102AF000983EDCF3869577956795B795F795E795BA
:102B00009F5FC1F7FE2B880F911D9695879597F9CA
:102B10000895DB018F939F930E94EB15BF91AF91B6
:102B2000A29F800D911DA39F900DB29F900D112427
:102B3000089597FB072E16F4009407D077FD09D06F
:102B40000E94F61507FC05D03EF4909581959F4FA5
:102B50000895709561957F4F0895A1E21A2EAA1BE2
:102B6000BB1BFD010DC0AA1FBB1FEE1FFF1FA2173D
:102B7000B307E407F50720F0A21BB30BE40BF50B3A
:102B8000661F771F881F991F1A9469F760957095C3
:102B9000809590959B01AC01BD01CF010895052E54
:102BA00097FB16F4009407D057FD0DD00E94AD1589
:102BB00007FC09D07EF490958095709561957F4FC4
:102BC0008F4F9F4F089550954095309521953F4FD9
:102BD0004F4F5F4F08950E941016A59F900DB49F10
:102BE000900DA49F800D911D11240895AA1BBB1B5D
:102BF00051E107C0AA1FBB1FA617B70710F0A61BFD
:102C0000B70B881F991F5A95A9F780959095BC011D
:102C1000CD010895EE0FFF1F0590F491E02D09946A
:102C2000A29FB001B39FC001A39F01D0B29F700DBE
:102C3000811D1124911D0895FC0188279927E8948E
:102C400021912032E9F3293010F02E30C8F32B32D5
:102C500041F02D3239F4689404C00E946B16820F43
:102C6000911D219120532A30C0F31EF49095819537
:102C70009F4F0895FB01DC0102C001900D9241506D
:102C80005040D8F70895FB01DC0101900D9200201F
:102C9000E1F70895FB019F01E8944230C4F045320A
:102CA000B4F44A3029F497FB1EF4909581959F4F18
:102CB000642F77270E94F615805D8A330CF0895DBA
:102CC0008193CB010097A1F716F45DE25193108236
:102CD000C9010C9489167AE0979F902D879F802DCB
:102CE000910D11240895FB019F01423074F045328B
:102CF00064F4642F77270E94F615805D8A330CF008
:102D0000895D8193CB010097A1F71082C9010C94D2
:102D10008916DC01FC01672F71917723E1F7329767
:102D200004C07C916D9370836291AE17BF07C8F3A6
:062D30000895F894FFCFA6
:102D360000002C0380001121220A0C147372632FE9
:102D4600636F6D6D756E696361746F722E637070FB
:102D560000202D2000456E746572696E6720636FD2
:102D66006E7374727563746F7220666F723A2000A8
:102D760053657269616C20696E697469616C697A00
:102D860065642E2000636F6D6D756E696361746F87
:102D9600720000000000F700E900F3002D2D2D2D34
:102DA6000062006420743000662074300064207471
:102DB600310066207431002D2D51554552592D2D67
:102DC6000A002D2D442D2D007372632F62727573C8
:102DD600686C6573732E6370700066002064002053
:102DE600720074696D6572312073746172740000CB
:102DF600000000BB02CA02D8028903D003F902FD13
:102E060002D40200000000010310031E034503075D
:102E1600043D0341031A037372632F736B65746376
:102E2600682E696E6F0053657269616C436F6D6DD4
:102E3600206F626A65637420696E697469616C6982
:102E46007A65642E200042727573686C6573732010
:102E56006F626A65637420696E697469616C697A08
:102E660065642E2000204F435231413A2000204F06
:102E7600435231423A0000000000D10EB80D730EE5
:062E8600A20E860EC60E2E
:00000001FF
