:100000000C9435040C9452040C9452040C94520435
:100010000C9452040C9452040C9452040C943F120D
:100020000C9466120C948D120C9452040C94B60E1F
:100030000C9452040C9452040C94A30C0C94CA0C0F
:100040000C94F10C0C9452040C94D9120C94FE12E2
:100050000C9452040C9452040C9452040C945204C8
:100060000C9452040C9452045B494E464F5D202878
:1000700025733A256429206C6F6F70696E67206163
:100080006E6420666C617070696E670A005B494E31
:10009000464F5D202825733A2564292043616C6909
:1000A0006272617A696F6E6520696E7465727661DD
:1000B0006C6C6F2031207365632E0A005B494E46DD
:1000C0004F5D202825733A256429207365742070BC
:1000D000696E206C6F770A005B494E464F5D2028A1
:1000E00025733A256429207365742070696E206831
:1000F0006967680A005B494E464F5D202825733AC0
:1001000025642920636C6F636B3A20256C750A00A7
:100110005B494E464F5D202825733A2564292069A6
:100120006E697469616C697A696E6720696E74655D
:10013000726E616C20636C6F636B0A005B494E46A4
:100140004F5D202825733A25642920436F6D756E15
:10015000696361746F722072656164792E2E6C65BB
:100160007427732074657374210A005B5741524EE3
:100170005D202825733A2564292074657374206CEA
:100180006F67676572207761726E200A005B494E67
:10019000464F5D202825733A2564292074657374C1
:1001A000206C6F6767657220696E666F0A005B4935
:1001B0004E464F5D202825733A256429206C6F6FC9
:1001C00070696E6720626162790A005B494E464F32
:1001D0005D202825733A2564292073746172742088
:1001E0006C6F6F700A005B494E464F5D2028257387
:1001F0003A2564292073657420544F5020746F2071
:1002000025752C20667265713A20256C752C20634B
:100210006C6F636B20256C750A005B494E464F5D21
:10022000202825733A2564292072756E6E696E67E1
:1002300020617420256C75207072657363616C6534
:10024000723A20257520746F703A202575206475E8
:1002500074793A200A005B494E464F5D2028257389
:100260003A2564292072756E6E696E67206174206C
:10027000256C75207072657363616C65723A202518
:100280007520746F703A20257520647574793A2052
:100290000A005B494E464F5D202825733A256429A4
:1002A0002072756E6E696E6720617420256C7520F2
:1002B0007072657363616C65723A20257520746F86
:1002C000703A20257520647574793A200A005B49DC
:1002D0004E464F5D202825733A25642920207365FA
:1002E00074206672657175656E63792031303030C7
:1002F0003030302025750A005B494E464F5D20287E
:1003000025733A2564292073657420746F702074F6
:100310006F2025750A005B494E464F5D20282573E6
:100320003A256429207374617274696E672073655D
:1003300071756E6563650A005B494E464F5D202806
:1003400025733A256429206C6F6F7020636F6D7080
:100350006C657465642E0A005B494E464F5D20282B
:1003600025733A25642920667265713A20256C75DB
:100370002C207072657363616C65723A2025752C50
:10038000647574793A2025750A005B494E464F5DC5
:10039000202825733A25642920667265713A202544
:1003A0006C752C207072657363616C65723A2025E0
:1003B000752C647574793A2025750A005B494E46A0
:1003C0004F5D202825733A25642920667265713AAD
:1003D00020256C752C207072657363616C65723AB0
:1003E0002025752C647574793A2025750A005B49BF
:1003F0004E464F5D202825733A2564292073746189
:100400007274206C6F6F700A005B494E464F5D201E
:100410002825733A25642920207365742066726547
:100420007175656E63792031363030204B687A20E3
:10043000206174207072657363616C65722025752C
:100440000A005B494E464F5D202825733A256429F2
:1004500020207072657363616C65723A2025752C7B
:10046000647574793A2025640A005B494E464F5DF5
:10047000202825733A25642920207365742066722C
:10048000657175656E6379203330302025750A00FB
:100490005B494E464F5D202825733A256429207715
:1004A000616974696E6720746F2073746172742E51
:1004B0002E0A005B494E464F5D202825733A25647D
:1004C000292074696D656F75742120256C64202561
:1004D0006C6420256C6420256C640A005B494E46E0
:1004E0004F5D202825733A2564292043616C696299
:1004F00072617A696F6E6520696E74657276616C7F
:100500006C6F2031207365632E206D696C6C69738C
:1005100020737461727420256C640A005B494E4636
:100520004F5D202825733A2564292074696D657212
:1005300020696E697420637463206F6372610A00BE
:100540005B494E464F5D202825733A256429207368
:10055000657420544F5020746F2025752C206672CE
:1005600065713A20256C752C20636C6F636B2025B8
:100570006C750A005B494E464F5D202825733A256D
:1005800064292072756E6E696E6720617420256C17
:1005900075207072657363616C65723A20257520F1
:1005A000746F703A20257520647574793A200A00BA
:1005B0005B494E464F5D202825733A2564292072F9
:1005C000756E6E696E6720617420256C752070727F
:1005D000657363616C65723A20257520746F703A9B
:1005E00020257520647574793A200A005B494E46CF
:1005F0004F5D202825733A2564292072756E6E6937
:100600006E6720617420256C75207072657363615C
:100610006C65723A20257520746F703A202575201C
:10062000647574793A200A005B494E464F5D202874
:1006300025733A25642920207365742066726571DC
:1006400075656E637920313030303030302025755B
:100650000A005B494E464F5D202825733A256429E0
:100660002073657420746F7020746F2025750A00E4
:100670005B494E464F5D202825733A256429207337
:1006800074617274696E6720736571756E656365F8
:100690000A005B494E464F5D202825733A256429A0
:1006A000206C6F6F7020636F6D706C657465642E65
:1006B0000A005B494E464F5D202825733A25642980
:1006C00020667265713A20256C752C2070726573F6
:1006D00063616C65723A2025752C647574793A20D3
:1006E00025750A005B494E464F5D202825733A2543
:1006F000642920667265713A20256C752C20707211
:10070000657363616C65723A2025752C6475747924
:100710003A2025750A005B494E464F5D2028257317
:100720003A25642920667265713A20256C752C2063
:100730007072657363616C65723A2025752C6475FF
:1007400074793A2025750A005B494E464F5D202892
:1007500025733A256429207374617274206C6F6F5D
:10076000700A005B494E464F5D202825733A256488
:10077000292020736574206672657175656E6379D2
:100780002031363030204B687A202061742070721E
:10079000657363616C65722025750A005B494E467E
:1007A0004F5D202825733A256429202070726573D7
:1007B00063616C65723A2025752C647574793A20F2
:1007C00025640A005B494E464F5D202825733A2573
:1007D00064292020736574206672657175656E6387
:1007E00079203330302025750A005B494E464F5D35
:1007F000202825733A2564292077616974696E671A
:1008000020746F2073746172742E2E0A005B494E3F
:10081000464F5D202825733A256429204578656375
:100820007574696E672073657444757479206F6E92
:100830002076616C75653A2025640A005B494E4656
:100840004F5D202825733A25642920457865637516
:1008500074696E6720736574546F70206F6E2076B4
:10086000616C75653A2025640A0011241FBECFEF24
:10087000D8E0DEBFCDBF12E0A0E0B1E0ECE4FAE4E6
:1008800002C005900D92A231B107D9F726E0A2E18E
:10089000B2E001C01D92A03BB207E1F70E94BB1C71
:1008A0000C941B250C940000CF93DF9300D000D054
:1008B00000D0CDB7DEB786E0E2E3F1E0DE011196CD
:1008C00001900D928A95E1F70E949708CE0101965A
:1008D0000E94840880E00E948C080F900F900F9077
:1008E0000F900F900F90DF91CF9108950C9489088D
:1008F0000C948C080C949F080C94C7080C94CA089C
:100900000C94CD080C945F0B0C943C0B0C94420B94
:100910000C942B0C0C94D10B0C94630A0E94760C53
:10092000CB0108950C94910C0C94710CE4E2F2E06C
:1009300084E190E09383828381E090E091838083DF
:100940001582148222E630E037832683ECE1F2E060
:1009500022E330E0338322839183808315821482E3
:100960002AEF30E037832683E4E1F2E026E930E045
:1009700033832283918380831582148288ED9EE0E5
:100980009783868308958F929F92AF92BF92EF9242
:10099000FF920F931F93CF93DF93CDB7DEB72897C6
:1009A0000FB6F894DEBF0FBECDBF29833A834B83C9
:1009B0005C836B817C81072E000C880B990B0E9455
:1009C000331E7B018C010E94B6068090300290900D
:1009D0003102A0903202B0903302681979098A0975
:1009E0009B090E94311E9701A8010E94BF1E2FE69D
:1009F00032E143E85AE30E94BF1E7B018C0169810A
:100A00007A81072E000C880B990B0E94331E9B01E4
:100A1000AC01B701C8010E941D1D0E94FB1DCB0146
:100A200028960FB6F894DEBF0FBECDBFDF91CF91F1
:100A30001F910F91FF90EF90BF90AF909F908F907C
:100A40000895893008F004C1E82FF0E0E35EFA4D24
:100A50000C94161D0E94640681E00E948A0481E0C5
:100A600090E090933502809334020E94840482E0E7
:100A700090E0909335028093340280E00E947804E5
:100A80000E94B60660933002709331028093320266
:100A9000909333020E94B60660932C0270932D024D
:100AA00080932E0290932F0283E090E09093350282
:100AB0008093340220912402309125024091260235
:100AC00050912702609128027091290280912A0298
:100AD00090912B020E94C3040E948A040E949204F7
:100AE0008C3330F084E090E09093350280933402B0
:100AF00061E070E080E090E00E9462060E94920453
:100B000090E090932502809324020E94B6066093A1
:100B1000300270933102809332029093330285E069
:100B200090E090933502809334020E9492042091C9
:100B30002A0230912B0282171306A4F4209124027A
:100B4000309125024091260250912702609128029F
:100B50007091290280912A0290912B020E94C30475
:100B60000E948A040E94680620912202309123028A
:100B700082179307C0F420911C0230911D0240910E
:100B80001E0250911F0260912002709121028091FB
:100B90002202909123020E94C304BC01990F880B8A
:100BA000990B0E9466060E94920420912A023091BD
:100BB0002B02821713067CF00E9468062091220205
:100BC000309123028217930730F086E090E09093F3
:100BD0003502809334020E946806BC01909315028E
:100BE000809314026F5F7F4F072E000C880B990BC8
:100BF0000E9466060E94B60660933002709331022E
:100C0000809332029093330287E090E09093350214
:100C10008093340220911402309115024091160203
:100C200050911702609118027091190280911A0276
:100C300090911B020E94C304BC01990F880B990B71
:100C40000E9466060E9468061092350210923402D5
:100C500008950E9454048AE794E00E945E060E9470
:100C6000820480E00E94210580E090E00895809158
:100C7000360290913702019741F4809134020E942C
:100C80002105109237021092360280E090E008951C
:100C90000C9468068FEF9FEF08958FEF9FEF0895F4
:100CA0000E9484046CE271E080E090E00E946206A1
:100CB00080E00E9478048AE50C948A040E94180D52
:100CC0000C94950D0C94A70E0C94560D0C94700E6C
:100CD0000C94490E80913E0290913F02A0914002F7
:100CE000B09141020196A11DB11D80933E029093E7
:100CF0003F02A0934002B093410280913E02909146
:100D00003F02A0914002B0914102883E9340A1056C
:100D1000B105D8F010923E0210923F0210924002AC
:100D20001092410280913A0290913B02A0913C02C4
:100D3000B0913D020196A11DB11D80933A0290939E
:100D40003B02A0933C02B0933D02089560E470E042
:100D500082E090E00E947D0B89EF90E00E94070CFA
:100D60008AE696E00E94940C0C943C0B60913E0243
:100D700070913F02809140029091410208956091EC
:100D80003A0270913B0280913C0290913D0208959D
:100D90008F929F92AF92BF92CF92DF92EF92FF928B
:100DA0006B017C0189EEC81683E0D806E104F104EA
:100DB00018F1C701B60128EE33E040E050E00E9490
:100DC000F41C6B017C0180903A0290903B02A09051
:100DD0003C02B0903D02820E931EA41EB51E80916F
:100DE0003A0290913B02A0913C02B0913D028816DC
:100DF0009906AA06BB06C8F460913E0270913F02B4
:100E00008091400290914102A70196010E94F41C3A
:100E1000672B682B692B81F4FF90EF90DF90CF90C8
:100E2000BF90AF909F908F90089568EE73E080E040
:100E300090E00E94C806D3CF0000DECFFC011182F3
:100E4000108284E6828380E895E20E94B412E8EA88
:100E5000F6E08AE191E09183808393838283089511
:100E6000FF920F931F93CF93DF93EC01F62E072F82
:100E7000142F80E895E20E94B412E8EAF6E08AE1D5
:100E800091E09183808393838283F88209831A831C
:100E9000DF91CF911F910F91FF9008953F924F9254
:100EA0005F926F927F928F929F92AF92BF92CF92FA
:100EB000DF92EF92FF920F931F93CF93DF9300D0B7
:100EC000CDB7DEB72C017B016A01322E2DB73EB7BC
:100ED0003A83298380E895E20E94B4128AE191E086
:100EE0009093A9068093A8069093AB068093AA06D8
:100EF000632C032C000C7708832D880F990BADB75A
:100F0000BEB7A81BB90B0FB6F894BEBF0FBEADBFDE
:100F1000EDB7FEB731965F014F0187017601C12C15
:100F2000D12CC614D704FCF0F201B182A082328227
:100F300029813A810FB6F8943EBF0FBE2DBF0F90A6
:100F40000F90DF91CF911F910F91FF90EF90DF9065
:100F5000CF90BF90AF909F908F907F906F905F9059
:100F60004F903F90089583E090E00E942C1FFC0179
:100F7000D4018D939D934D01D8018D918D01808376
:100F8000D7018D919D917D0192838183BFEFCB1A13
:100F9000DB0AC7CF0895FC01718360834283089503
:100FA000FF920F931F93CF93DF93CDB7DEB72B97AD
:100FB0000FB6F894DEBF0FBECDBF4091A80650918A
:100FC000A90666E070E0CE0101960E947121892B8E
:100FD00089F40E94781300E010E0C8012B960FB648
:100FE000F894DEBF0FBECDBFDF91CF911F910F915F
:100FF000FF9008950E947813F9808F2D0F2C000C1C
:10100000990B0E946021892B31F31A81812F012EC7
:10101000000C990B0E946821892BE9F22B81822F09
:10102000022E000C990BC0970A97A8F61F832887F9
:101030008C8189878D818A878E818B8782E090E081
:101040000E942C1F8C01FC01F08240E050E060E027
:1010500070E0CE0107960E945320F8016183BDCF56
:10106000CF93DF93FC01DB01428180E090E08417A5
:1010700024F084E6DF91CF910895BC016F5F7F4F2C
:10108000C081D1819C01220F331FC20FD31F099051
:10109000D881C02D3C912881321761F3CB01E7CF75
:1010A0000F931F93CF93DF938C01EB010E943008C5
:1010B00084369CF4880F990BD801ED91FC91E80FD0
:1010C000F91F0190F081E02D0180F281E02D8981EE
:1010D000DF91CF911F910F910994DF91CF911F91D3
:1010E0000F910895CF93DF93D82FC92F0E94D00777
:1010F000BC01892B31F08D2F9C2FDF91CF910C9467
:101100005008DF91CF9108959093C8028093C70251
:1011100008958091CA0208958093CA02E091C7029F
:10112000F091C802E80FF11D808185B9089581E032
:101130008093C9028FE384B980E00C948C0880917D
:10114000C9022091C7023091C802811591F08091A7
:10115000CA028F5F8093CA0266E00E94C01C90930F
:10116000CA028091CA02280F311DF901808185B918
:1011700008958091CA0281508093CA0290E0069639
:1011800066E070E00E94E01C8093CA02EACF809380
:10119000C90208958091C902089585B185B908955D
:1011A000CF92DF92EF92FF926A017B019C0140E0B7
:1011B00050E060E074E284EF90E00E94F41CCA0109
:1011C000B901A70196010E94F41CCA01B90161503E
:1011D0007109810991090E94311E0E94021ECB01F2
:1011E000FF90EF90DF90CF9008950F931F938B01A6
:1011F0009C0140E050E060E074E284EF90E00E94E7
:10120000F41CCA01B9010F5F1F4F980140E050E084
:101210000E94F41CCA01B9011F910F910895CF9249
:10122000DF92EF92FF926A017B019C0140E050E067
:1012300060E072E18AE790E00E94F41CCA01B90103
:10124000A70196010E94F41CCA01B9010E94311E37
:101250000E94021ECB01FF90EF90DF90CF90089587
:101260000F931F938B019C0140E050E060E072E11E
:101270008AE790E00E94F41CCA01B901980140E09D
:1012800050E00E94F41CCA01B9011F910F9108950A
:10129000FC01842F9B0140E050E0E330F10511F0A8
:1012A000359781F4803111F40E94582160E074E296
:1012B00084EF90E00E94F41CBB27A52F942F832F6E
:1012C00001960895803181F460E072E18AE790E050
:1012D0000E94F41CCA01B9012FEF3FEF40E050E03B
:1012E0000E94F41CC901ECCF60E072E18AE790E053
:1012F0000E94F41CCA01B9012FEF30E040E050E039
:10130000EFCF0F931F93DB01F9019C01261B370BD5
:101310000E1B1F0B209FC001219F900D309F900D31
:101320001124BA016A1B7B0B0E94CC1C6E0F7F1F1D
:1013300080E090E01F910F9108958091CB02089575
:101340005698559815BC14BC16BC10926E0015BA70
:1013500085B5877F85BD84B58C7F84BD08955698FB
:10136000559815BC14BC16BC10926E0015BA85B504
:10137000877F85BD84B5826084BD84B58E7F84BD42
:1013800008955698559815BC14BC16BC10926E0062
:1013900015BA85B5886085BD84B58D7F84BD84B55B
:1013A000816084BD0895089508955698559815BC98
:1013B00014BC16BC10926E0015BA85B5886085BD48
:1013C00084B5836084BD0895813429F484B584BDD7
:1013D0005E9856980895823421F484B584BD5D9852
:1013E000559808958134D9F4569A5E98611571051F
:1013F00039F484B58F7784BD84B5806484BD089545
:101400006130710531F484B5806884BD84B58F7B0B
:10141000F5CF6230710599F784B5806CEFCF8234D7
:1014200071F7559A5D986115710531F484B58F7D1A
:1014300084BD84B58061E2CF6130710531F484B53B
:10144000806284BD84B58F7ED9CF62307105B9F6D4
:1014500084B58063D3CF9C018034910511F148F4A9
:101460008130910591F088309105A9F0892B49F0E0
:101470000895211581E03807D1F021153440E9F0B5
:10148000089585B5887F85BD089585B5897F85BD1B
:1014900085B58160F8CF85B58A7F85BD85B58260C9
:1014A000F2CF85B58B7F85BD85B58360ECCF85B5E3
:1014B000846085BD85B58C7FE6CF85B5856085BDAB
:1014C00085B58D7FE0CFEF92FF920F931F93CF935F
:1014D000DF93EC0181E0E82E81E0F82E00E010E0DF
:1014E00080910001081711053CF0DF91CF911F9109
:1014F0000F91FF90EF900895F701819191917F01F5
:101500008C179D0759F4D093D102C093D0028091DB
:10151000CB02811519F0CE010E942B0A0F5F1F4FDD
:10152000DFCF6091000170E02091D0023091D102B4
:10153000E1E0F1E080E090E04191519142175307E2
:1015400059F401970E94E01CFC01EE0FFF1FEF5FB2
:10155000FE4F8081918108950196EECF6091000148
:1015600070E02091D0023091D102E1E0F1E080E022
:1015700090E041915191019642175307D1F70E9493
:10158000E01CFC01EE0FFF1FEF5FFE4F8081918199
:1015900008950E94AE0A0C94630A0E94910A0C946A
:1015A000630ACF92DF92EF92FF920F931F93CF9334
:1015B000DF936B017C0101E011E0C0E0D0E0F801B5
:1015C000619171918F0148E08091D2029091D30294
:1015D0000E944809C816D906E104F10478F0CC0F3E
:1015E000DD1FCF5FDE4F88819981DF91CF911F9101
:1015F0000F91FF90EF90DF90CF9008952196DFCF6D
:101600008091D2029091D302892B19F48091CF025C
:1016100086BD8091D2029091D3028230910519F05B
:101620000497029708F416BC0895CF93DF93D82F40
:10163000C92F8091D2029091D302892B39F40E9454
:10164000000B80916E00816080936E008091D202C9
:101650009091D302029739F40E94000B80916E00A2
:10166000826080936E0081E08093CB028D2F9C2F4F
:10167000DF91CF910C94630A8091D0029091D102B6
:101680000C94150B8091D2029091D302892B29F4EE
:1016900080916E008E7F80936E008091D202909137
:1016A000D302029729F480916E008D7F80936E00A3
:1016B00080E090E00E942B0A1092CB0208950E94D5
:1016C000420B0E94A00980E890E00E94630A6091AA
:1016D000D0027091D10280E090E00E94311E9B0107
:1016E000AC0161E070E08AE796E40E94891D0E94E7
:1016F000FB1D61956093CF0208950F931F93CF93C5
:10170000DF93EC018B010E94420B209719F5109298
:10171000D3021092D2020E94A009C8010E94630A5B
:101720006091D0027091D10280E090E00E94311E61
:101730009B01AC0161E070E08AE796E40E94891D9C
:101740000E94FB1D61956093CF02DF91CF911F91A5
:101750000F910895C430D10569F4D093D302C0939A
:10176000D2020E94C109C801DF91CF911F910F9150
:101770000C94630AC230D10539F4D093D302C093DC
:10178000D2020E94AF09EFCFC530D105F1F6D09358
:10179000D302C093D2020E94D509E5CF8093CF0235
:1017A00008950F931F93843608F083E68093CC024C
:1017B0002091D2023091D302A90144505109423004
:1017C000510518F022303105F9F42091CD02309105
:1017D000CE0290E00091CD021091CE0220FF02C017
:1017E0000150110920E030E044E650E060E070E094
:1017F0000E948109611104C081E088BD68BD04C0F8
:101800006F3FE1F78EEF88BD1F910F9108958330F0
:101810009105D8F482E090E09093CE028093CD02BF
:101820008091D2029091D3029C0124503109223040
:10183000310510F0029771F48091CD029091CE02A3
:1018400087BD8091CC020C94D10B9093CE028093F3
:10185000CD02E6CF08950F931F93CF93DF938B01B3
:10186000D82FC92F8091D2029091D3028430910554
:1018700011F0019791F4B8018D2F9C2F0E94D10A8D
:101880000E94630AA8016D2F7C2F8091D002909155
:10189000D1020E940F090E94070C8091D202909100
:1018A000D3028530910511F00397B1F4B8018D2F63
:1018B0009C2F0E94D10A0E94630AA8016D2F7C2FE1
:1018C0008091D0029091D1020E94D008DF91CF91F7
:1018D0001F910F910C94070CDF91CF911F910F91E5
:1018E00008958091D0029091D10208952091D20262
:1018F0003091D3028091D0029091D1026091CD02BB
:101900007091CE022430310519F02130310511F4E7
:101910000C9430090C94F5088091CD029091CE0280
:1019200008958091CC0208959093D7028093D602B7
:1019300008959093D5028093D40208959093D9028C
:101940008093D80208951F920F920FB60F92112420
:101950002F933F934F935F936F937F938F939F93B7
:10196000AF93BF93EF93FF93E091D602F091D7022C
:101970000995FF91EF91BF91AF919F918F917F91C9
:101980006F915F914F913F912F910F900FBE0F90EC
:101990001F9018951F920F920FB60F9211242F933C
:1019A0003F934F935F936F937F938F939F93AF93E7
:1019B000BF93EF93FF93E091D402F091D502099584
:1019C000FF91EF91BF91AF919F918F917F916F9117
:1019D0005F914F913F912F910F900FBE0F901F90ED
:1019E00018951F920F920FB60F9211242F933F93C9
:1019F0004F935F936F937F938F939F93AF93BF9317
:101A0000EF93FF93E091D802F091D9020995FF91ED
:101A1000EF91BF91AF919F918F917F916F915F9166
:101A20004F913F912F910F900FBE0F901F901895DF
:101A30009093DB028093DA020895229A81E090E08D
:101A4000909387008093860090938B0080938A0008
:101A5000A1E8B0E01C92E0E8F0E01082109285006E
:101A6000109284008081806280838C9188618C9345
:101A700080818260808380818083EFE6F0E08081D6
:101A80008460808380E00895229AE0E8F0E080811D
:101A90008062808380818083A1E8B0E08C9188613E
:101AA0008C9380818360808380E00895E1E8F0E09A
:101AB0008081887F808308956FEF7FEF81E090E0E1
:101AC0000E94F508462F572F4F5F5F4F5093E30258
:101AD0004093E2026FEF7FEF88E090E00E94F5080C
:101AE000462F572F4F5F5F4F5093E1024093E00224
:101AF0006FEF7FEF80E490E00E94F508462F572FAC
:101B00004F5F5F4F5093DF024093DE026FEF7FEF36
:101B100080E091E00E94F508462F572F4F5F5F4FFE
:101B20005093DD024093DC0208950E945C0D0E94F8
:101B3000440D80E00895462F572FBC018091E202AA
:101B40009091E3024817590761057105F8F48091F7
:101B5000E0029091E1024817590761057105C8F448
:101B60008091DE029091DF024817590761057105E7
:101B700090F42091DC023091DD0291E0421753078E
:101B80006105710508F490E080E0089581E090E03F
:101B9000089588E0FCCF80E4FACF9C018034910561
:101BA00091F138F481309105A9F0089719F181E09D
:101BB0000895211581E0380779F1211584E038076F
:101BC000B1F7809181008D7F8093810080918100A9
:101BD000856008C080918100897F80938100809119
:101BE00081008160809381003093E5022093E402BC
:101BF00080E00895809181008A7F809381008091A8
:101C000081008260EFCF809181008B7F8093810083
:101C1000809181008360E6CF809181008C7F8093EA
:101C20008100809181008460DDCF9C0180918800DB
:101C3000909189002817390731F03093890020935B
:101C4000880080E008958FEF08950F931F939FEF12
:101C5000980F9436B8F4009188001091890020E024
:101C600030E044E650E060E070E090E00E948109DE
:101C7000462F572F50938B0040938A0080E01F918E
:101C80000F9108958FEFFBCF8091E4029091E502D0
:101C9000089560918800709189008091E40290918C
:101CA000E5020E94F508CB0108958091880090918B
:101CB000890008950F931F934091880050918900E7
:101CC00080918A0090918B0004E610E020E030E0E3
:101CD00060E070E00E948109CB011F910F9108958F
:101CE000CF92DF92EF92FF926B017C010E94490E2E
:101CF0008C159D051E041F0431F48FEFFF90EF90AB
:101D0000DF90CF900895C701B6010E949B0D2091EE
:101D1000E4023091E5028217930711F00E94CD0D85
:101D2000B701A6018091E4029091E5020E94D008DB
:101D30000E94150E8F3F09F30E945A0E0E94250E35
:101D400091E08F3F09F090E0892F8195D7CF0C94D7
:101D5000700E0E94490E90938900809388000E9423
:101D60005A0E90938B0080938A0008951F920F92D1
:101D70000FB60F9211242F933F934F935F936F935E
:101D80007F938F939F93AF93BF93EF93FF93E091D4
:101D9000DA02F091DB020995FF91EF91BF91AF91CB
:101DA0009F918F917F916F915F914F913F912F9173
:101DB0000F900FBE0F901F9018958091E602089526
:101DC00023985398A1EBB0E01C92E0EBF0E0108276
:101DD0001092B2001092700017BA8C91877F8C938A
:101DE00080818C7F80830895CF93DF9323985398CD
:101DF000A1EBB0E01C92E0EBF0E010821092B20098
:101E00001092700017BAC6EBD0E088818F7D88836E
:101E10008C91877F8C9380818260808380818E7F8C
:101E20008083DF91CF91089523985398A1EBB0E080
:101E30001C92E0EBF0E010821092B2001092700061
:101E400017BA8C9188608C9380818D7F808380818C
:101E50008160808308950895089523985398A1EB95
:101E6000B0E01C92E0EBF0E010821092B200109211
:101E7000700017BA8C9188608C9380818360808316
:101E80000895813439F48091B0008093B0002B988C
:101E900023980895823431F48091B0008093B0008B
:101EA0005B9853980895813419F5239A2B986115FE
:101EB000710559F48091B0008F778093B0008091C4
:101EC000B00080648093B00008956130710549F4DA
:101ED0008091B00080688093B0008091B0008F7BCB
:101EE000F1CF6230710581F78091B000806CEACF4C
:101EF000823451F7539A5B986115710549F48091CA
:101F0000B0008F7D8093B0008091B0008061DACF07
:101F10006130710549F48091B00080628093B00017
:101F20008091B0008F7ECECF6230710569F68091CE
:101F3000B0008063C7CF9C0180349105D9F160F473
:101F40008830910529F128F4009799F00197B9F0AC
:101F50000895809731F10895211581E03807E1F166
:101F6000211584E0380709F440C02038310559F1C3
:101F700008958091B100887F8093B1000895809189
:101F8000B100897F8093B1008091B1008160F4CF6E
:101F90008091B1008A7F8093B1008091B10082600E
:101FA000EBCF8091B1008B7F8093B1008091B10025
:101FB0008360E2CF8091B10084608093B100809112
:101FC000B1008C7FD9CF8091B10085608093B10042
:101FD0008091B1008D7FD0CF8091B10086608093D9
:101FE000B1008091B1008E7FC7CF8091B100876032
:101FF000C3CFEF92FF920F931F93CF93DF93EC0128
:102000008CE0E82E81E0F82E00E010E080910B01DA
:10201000081711053CF0DF91CF911F910F91FF90B0
:10202000EF900895F701819191917F018C179D07A1
:1020300059F4D093EC02C093EB028091E602811533
:1020400019F0CE010E949B0F0F5F1F4FDFCF6091F1
:102050000B0170E02091EB023091EC02ECE0F1E03A
:1020600080E090E0419151914217530759F4019754
:102070000E94E01CFC01EE0FFF1FE45FFE4F808119
:10208000918108950196EECF60910B0170E020914F
:10209000EB023091EC02ECE0F1E080E090E0419165
:1020A0005191019642175307D1F70E94E01CFC01A1
:1020B000EE0FFF1FE45FFE4F8081918108950E9423
:1020C00044100C94F90F0E9427100C94F90FCF9232
:1020D000DF92EF92FF920F931F93CF93DF936B01E9
:1020E0007C010CE011E0C0E0D0E0F8016191719159
:1020F0008F0148E08091ED029091EE020E94480924
:10210000C816D906E104F10478F0CC0FDD1FC45FD6
:10211000DE4F88819981DF91CF911F910F91FF90C0
:10212000EF90DF90CF9008952196DFCF8091ED0260
:102130009091EE02892B21F48091EA028093B20003
:102140008091ED029091EE028230910519F0049792
:10215000029710F41092B2000895CF93DF93D82F16
:10216000C92F8091ED029091EE02892B39F40E94E3
:102170009610809170008160809370008091ED02D4
:102180009091EE02029739F40E94961080917000AF
:1021900082608093700081E08093E6028D2F9C2FF7
:1021A000DF91CF910C94F90F8091EB029091EC02AA
:1021B0000C94AD108091ED029091EE02892B29F4E0
:1021C000809170008E7F809370008091ED029091DD
:1021D000EE02029729F4809170008D7F8093700049
:1021E00080E090E00E949B0F1092E60208950E940A
:1021F000DA100E94E00E80E890E00E94F90F6091F2
:10220000EB027091EC0280E090E00E94311E9B0195
:10221000AC0161E070E08AE796E40E94891D0E94AB
:10222000FB1D61956093EA0208950F931F93CF936E
:10223000DF93EC018B010E94DA10209719F51092C0
:10224000EE021092ED020E94E00EC8010E94F90F0A
:102250006091EB027091EC0280E090E00E94311EF0
:102260009B01AC0161E070E08AE796E40E94891D61
:102270000E94FB1D61956093EA02DF91CF911F914F
:102280000F910895C430D10569F4D093EE02C09344
:10229000ED020E94140FC801DF91CF911F910F91A1
:1022A0000C94F90FC230D10539F4D093EE02C093EB
:1022B000ED020E94F40EEFCFC530D105F1F6D093B8
:1022C000EE02C093ED020E942D0FE5CF8093EA024B
:1022D00008950F931F93843608F083E68093E702F6
:1022E0002091ED023091EE02A90144505109423093
:1022F000510518F02230310511F52091E802309196
:10230000E90290E00091E8021091E90220FF02C08A
:102310000150110920E030E044E650E060E070E058
:102320000E948109611106C081E08093B40060932E
:10233000B40005C06F3FD9F78EEF8093B4001F91B2
:102340000F91089583309105E0F482E090E090933E
:10235000E9028093E8028091ED029091EE029C01E7
:10236000245031092230310510F0029779F4809120
:10237000E8029091E9028093B3008091E7020C9407
:1023800069119093E9028093E802E5CF08950F93D5
:102390001F93CF93DF938B01D82FC92F8091ED022C
:1023A0009091EE028430910511F0019791F4B801FB
:1023B0008D2F9C2F0E9467100E94F90FA8016D2F8E
:1023C0007C2F8091EB029091EC020E940F090E94F9
:1023D000A2118091ED029091EE028530910511F0ED
:1023E0000397B1F4B8018D2F9C2F0E9467100E94B3
:1023F000F90FA8016D2F7C2F8091EB029091EC02D8
:102400000E94D008DF91CF911F910F910C94A211DF
:10241000DF91CF911F910F9108958091EB029091E0
:10242000EC0208952091ED023091EE028091EB02D2
:102430009091EC026091E8027091E902243031053C
:1024400019F02130310511F40C9430090C94F50881
:102450008091E8029091E90208958091E702089541
:102460009093F2028093F10208959093F00280938A
:10247000EF0208959093F4028093F30208951F925F
:102480000F920FB60F9211242F933F934F935F93A8
:102490006F937F938F939F93AF93BF93EF93FF932C
:1024A000E091F102F091F2020995FF91EF91BF9155
:1024B000AF919F918F917F916F915F914F913F91DC
:1024C0002F910F900FBE0F901F9018951F920F9293
:1024D0000FB60F9211242F933F934F935F936F93F7
:1024E0007F938F939F93AF93BF93EF93FF93E0916D
:1024F000EF02F091F0020995FF91EF91BF91AF913A
:102500009F918F917F916F915F914F913F912F910B
:102510000F900FBE0F901F9018951F920F920FB63D
:102520000F9211242F933F934F935F936F937F9359
:102530008F939F93AF93BF93EF93FF93E091F30239
:10254000F091F4020995FF91EF91BF91AF919F91A6
:102550008F917F916F915F914F913F912F910F904C
:102560000FBE0F901F901895A0E0B0E09C01AD0148
:1025700084E0220F331F441F551F8A95D1F760E076
:1025800074E284EF90E00E94F41C215031093093F2
:10259000C5002093C400E1ECF0E088E1808386E090
:1025A0008093C2008091C600808180688083789487
:1025B00008952F932FB72F933F938F939F93EF936C
:1025C000FF932091C6008091F80290E001968F73EE
:1025D00099273091F702381741F0E091F802F0E0C6
:1025E000E65CFC4F20838093F802FF91EF919F916E
:1025F0008F913F912F912FBF2F9118958F938FB768
:102600008F939F93EF93FF939091F6028091F50241
:102610009817B9F0E091F502F0E0E650FD4F8081A7
:102620008093C6008091F50290E001968F73992700
:102630008093F502FF91EF919F918F918FBF8F91C2
:1026400018958091C1008F7D8093C100F3CFCF9307
:10265000C82F8A3019F48DE00E9427132091F602CA
:1026600030E02F5F3F4F2F733327822F9091F50279
:102670009817A1F09FB7F894E091F602F0E0E650C9
:10268000FD4FC0832093F6028091C1008062809349
:10269000C1009FBF80E090E0CF9108950000E6CF99
:1026A0000E94271380E090E00895CF939091F80264
:1026B0008091F7029817C1F02FB7F894E091F702D4
:1026C000F0E0E65CFC4FC0818091F70290E001965B
:1026D0008F7399278093F7022FBF8C2F0E942713A7
:1026E0008C2F90E0CF9108950000E0CF0C9455130B
:1026F0001092F8021092F7020895CF93DF9300D062
:102700000F92CDB7DEB7CE0101960E941E071F9231
:1027100086E08F9304E411E01F930F938CE391E024
:102720009F938F938091AB068F938091AA068F938E
:102730000E94A2211F9288E08F931F930F9380E144
:1027400091E09F938F938091AB068F938091AA061F
:102750008F930E94A2210E94A6060E94B6069F9314
:102760008F937F936F931F928CE08F931F930F93A0
:1027700085EF90E09F938F938091AB068F9380912C
:10278000AA068F930E94A221569A1F9283E28F93EA
:102790001F930F9388ED90E09F938F938091AB06EA
:1027A0008F938091AA068F930E94A2215E9A0FB602
:1027B000F894DEBF0FBECDBF64EF71E080E090E023
:1027C0000E94C8061F9286E28F931F930F938CEB93
:1027D00090E09F938F938091AB068F938091AA0690
:1027E0008F930E94A2215E9864EF71E080E090E0F8
:1027F0000E94C8061F9281E38F931F930F938DE869
:1028000090E09F938F938091AB068F938091AA065F
:102810008F930E94A2210FB6F894DEBF0FBECDBFEA
:1028200010E00FE384E4E82E81E0F82E98E6C92E4C
:1028300090E0D92E1F920F93FF92EF92DF92CF92EA
:102840008091AB068F938091AA068F930E94A2215C
:102850000FB6F894DEBF0FBECDBF111109C05E9A4E
:1028600011E068EE73E080E090E00E94C806E2CFDD
:102870005E9810E0F6CF0F931F93CF93DF931F92D4
:1028800085E08F9304E611E01F930F938DE891E0AC
:102890009F938F93C8EAD6E08B818F938A818F9321
:1028A0000E94A2211F9286E08F931F930F938BE6C5
:1028B00091E09F938F938B818F938A818F930E9456
:1028C000A2218DB79EB740960FB6F8949EBF0FBE5B
:1028D0008DBF80E0DF91CF911F910F91089585B159
:1028E00090E1892785B9089585B190E2892785B956
:1028F0000895CF93DF93CDB7DEB729970FB6F8943D
:10290000DEBF0FBECDBF259A249A81E692E6998755
:10291000888780912E0190912F01A0913001B09174
:10292000310189839A83AB83BC838E010B5F1F4F78
:1029300022E0AE014F5F5F4FBE01685F7F4FC8016D
:102940000E944E076091AA067091AB0684E791E061
:102950000E94BF211F9286E18F9384EB91E09F93A9
:102960008F938BEC91E09F938F938091AB068F9325
:102970008091AA068F930E94A2210FB6F894DEBF21
:102980000FBECDBFB02EC12E89E1D82E94EBE92E1B
:1029900091E0F92E0EEA11E08B2D9C2D0E94720819
:1029A0001F92DF92FF92EF921F930F938091AB06DD
:1029B0008F938091AA068F930E94A2210FB6F8945C
:1029C000DEBF0FBECDBFE8CF0F931F9380911105DF
:1029D00090911205A0911305B09114050196A11DC7
:1029E000B11D8093110590931205A0931305B09328
:1029F00014058091110590911205A0911305B091D5
:102A000014054091090550910A0560910B057091DC
:102A10000C05841B950BA60BB70B0A97A105B105F6
:102A200058F18091090590910A05A0910B05B0918C
:102A30000C0540911105509112056091130570919C
:102A40001405009111051091120520911305309184
:102A50001405800F911FA21FB31F0A96A11DB11D5F
:102A6000841B950BA60BB70B8093090590930A0561
:102A7000A0930B05B0930C05809111059091120560
:102A8000A0911305B0911405883E9340A105B105AE
:102A900018F1109211051092120510921305109260
:102AA00014051092090510920A0510920B05109258
:102AB0000C0580910D0590910E05A0910F05B09128
:102AC00010050196A11DB11D80930D0590930E0573
:102AD000A0930F05B09310051F910F910895CF9308
:102AE000DF9300D00F92CDB7DEB7CE0101960E94E2
:102AF0001E071F9280E28F930AED11E01F930F9340
:102B00008CE195E09F938F938091AB068F9380919A
:102B1000AA068F930E94A22160E870E082E090E014
:102B20000E9415118CE790E00E94A21184EE94E1BE
:102B30000E94301261E070E082E40E94530F0E9414
:102B4000D4108091110590911205A0911305B091B8
:102B50001405C0901105D0901205E0901305F09077
:102B60001405FF92EF92DF92CF921F928CE28F9327
:102B70001F930F938CED94E09F938F938091AB06FE
:102B80008F938091AA068F930E94A2210FB6F8948A
:102B9000DEBF0FBECDBF86E3982E580103EB14E0D5
:102BA000D701C601C0901105D0901205E090130521
:102BB000F0901405C816D906EA06FB0614F4D701EE
:102BC000C601B701A601481B590B6A0B7B0B443F9A
:102BD00051406105710534F340900D0550900E058C
:102BE00060900F05709010054091090550910A05FD
:102BF00060910B0570910C057F926F925F924F92DE
:102C00007F936F935F934F93FF92EF92DF92CF92F8
:102C1000BF93AF939F938F931F929F92BF92AF9258
:102C20001F930F938091AB068F938091AA068F9389
:102C30000E94A2210FB6F894DEBF0FBECDBFB0CF69
:102C4000CF93DF9300D00F92CDB7DEB761E070E095
:102C500084E090E00E94151161E070E082E40E943F
:102C6000530F82E30E94691163E270E080E090E01C
:102C70000E94C7110E94D410CE0101960E941E0727
:102C80000E94A60684B1837C84B985B18C6385B922
:102C90001F928FE68F938AED91E09F938F9380E947
:102CA00094E09F938F938091AB068F938091AA06B7
:102CB0008F930E94A2210FB6F894DEBF0FBECDBF46
:102CC0000AED11E0EAE68E2EE4E09E2EFAE04F2EA9
:102CD000512C612C712C1D9959C16CE271E080E07E
:102CE00090E00E94C7110E940D129F938F931F9234
:102CF00089E78F931F930F939F928F928091AB06DA
:102D00008F938091AA068F930E94A2210E942D1278
:102D1000F82E0E940D121F92FF929F938F931F9285
:102D20008AE78F931F930F9382E494E09F938F938E
:102D30008091AB068F938091AA068F930E94A22167
:102D40006CED75E080E090E00E94C80660E07AE6F5
:102D500088E190E00E94C7110E940D129F938F930B
:102D60001F928DE78F931F930F9389E094E09F93B9
:102D70008F938091AB068F938091AA068F930E94C8
:102D8000A2210FB6F894DEBF0FBECDBF62E473E0A0
:102D900080E090E00E94C8061F9281E88F931F9305
:102DA0000F938EEE93E09F938F938091AB068F935A
:102DB0008091AA068F930E94A2210FB6F894DEBFDD
:102DC0000FBECDBF68E2C62ED12CE12CF12C7CE8E1
:102DD000A72EC701B6010E94C71198EEC91693E04D
:102DE000D906E104F104C0F5C701B601A3019201BF
:102DF0000E94F41C672B682B692B11F50E942D1281
:102E0000B82E0E940D121F92BF929F938F93FF9234
:102E1000EF92DF92CF921F92AF921F930F938CEBA2
:102E200093E09F938F938091AB068F938091AA0636
:102E30008F930E94A2210FB6F894DEBF0FBECDBFC4
:102E40006AEF70E080E090E00E94C80694E1C90E4D
:102E5000D11CE11CF11CBDCFC701B60128E7C21689
:102E600026EED206E104F104C8F524E630E040E0A5
:102E700050E00E94F41C672B682B692B19F50E9407
:102E80002D12B82E0E940D121F92BF929F938F9306
:102E9000FF92EF92DF92CF921F9283E98F931F935D
:102EA0000F938AE893E09F938F938091AB068F9363
:102EB0008091AA068F930E94A2210FB6F894DEBFDC
:102EC0000FBECDBF6AEF70E080E090E00E94C806C0
:102ED00094E6C90ED11CE11CF11C7BCF28EE33E037
:102EE00040E050E00E94F41C672B682B692B19F519
:102EF0000E942D12B82E0E940D121F92BF929F9316
:102F00008F93FF92EF92DF92CF921F9289E98F9376
:102F10001F930F9388E593E09F938F938091AB0667
:102F20008F938091AA068F930E94A2210FB6F894E6
:102F3000DEBF0FBECDBF6AEF70E080E090E00E9480
:102F4000C80698EEC90E93E0D91EE11CF11C21E0E1
:102F5000C21629E0D2062DE3E206F10408F439CFC7
:102F60001F9282EA8F931F930F9388E393E09F93BE
:102F70008F938091AB068F938091AA068F930E94C6
:102F8000A2210FB6F894DEBF0FBECDBF1C994DC075
:102F90001F9287EA8F931F930F9386E193E09F938D
:102FA0008F938091AB068F938091AA068F930E9496
:102FB000A22181E090E00E94F90F0FB6F894DEBFE5
:102FC0000FBECDBF32E3E32EF12C4CEAB42E58EF06
:102FD000C52E52E0D52EFF92EF921F92BF921F9303
:102FE0000F93DF92CF928091AB068F938091AA06C8
:102FF0008F930E94A221C7010E94A21168EE73E084
:1030000080E090E00E94C80691E0E91AF1080FB64E
:10301000F894DEBF0FBECDBFE114F104E1F662E427
:1030200073E080E090E00E94C8061B99C7C060E48E
:1030300072E48FE090E00E94C7110E940D129F93EE
:103040008F931F9289EB8F931F930F938EEC92E0D7
:103050009F938F938091AB068F938091AA068F9355
:103060000E94A22162E473E080E090E00E94C80622
:103070000FB6F894DEBF0FBECDBF8AE0E82EF12C6C
:1030800092E9292E92E0392E27ECA22E60E472E418
:103090008FE090E00E94C7110E942D12B82E0E946E
:1030A0000D12D82EC92E0E9412121F92BF92CF92DB
:1030B000DF929F938F937F936F931F929FEB9F93CA
:1030C0001F930F933F922F928091AB068F93809125
:1030D000AA068F930E94A22162E473E080E090E050
:1030E0000E94C80663E270E080E090E00E94C71191
:1030F0000E942D12B82E0E940D12D82EC92E0E94A9
:1031000012121F92BF92CF92DF929F938F937F9361
:103110006F931F9223EC2F931F930F9386E592E0FA
:103120009F938F938091AB068F938091AA068F9384
:103130000E94A2210FB6F894DEBF0FBECDBF62E49D
:1031400073E080E090E00E94C80664EC79E080E0E3
:1031500090E00E94C7110E942D12B82E0E940D12FD
:10316000D82EC92E0E9412121F92BF92CF92DF92C8
:103170009F938F937F936F931F92AF921F930F93A1
:103180008AE192E09F938F938091AB068F93809119
:10319000AA068F930E94A22162E473E080E090E08F
:1031A0000E94C80681E0E81AF1080FB6F894DEBF65
:1031B0000FBECDBFE114F10409F068CF1A998BCD91
:1031C0000E94121262537109810991096B017C01FD
:1031D0000E94C7110E9412121F9224EF2F9324E223
:1031E0002F931F929F938F937F936F93FF92EF92F2
:1031F000DF92CF921F9283ED8F931F930F9386EEF2
:1032000091E09F938F938091AB068F938091AA0654
:103210008F930E94A22162E473E080E090E00E941C
:10322000C8060FB6F894DEBF0FBECDBF54CDCF9306
:10323000DF93C82FD0E01F928F931F9284E08F936B
:103240008EEF91E09F938F938CE398E09F938F9301
:10325000E8EAF6E083818F9382818F930E94A22116
:103260008DB79EB70A960FB6F8949EBF0FBE8DBF5E
:10327000CE01DF91CF910C94070CCF93C82F1F92F2
:103280008F931F9289E08F938EEF91E09F938F939E
:103290008DE098E09F938F93E8EAF6E083818F9327
:1032A00082818F930E94A2218DB79EB70A960FB696
:1032B000F8949EBF0FBE8DBF8C2FCF910C94D10B75
:1032C000CF93DF9300D00F92CDB7DEB761E070E00F
:1032D00084E090E00E947D0B61E070E082E40E9457
:1032E000F20982E30E94D10B63E270E080E090E09B
:1032F0000E942B0C0E943C0BCE0101960E941E07DF
:103300000E94A60684B1837C84B985B18C6385B99B
:103310001F9282E28F938EEF91E09F938F938AEEBC
:1033200097E09F938F938091AB068F938091AA062D
:103330008F930E94A2210FB6F894DEBF0FBECDBFBF
:103340000EEF11E0E4EC8E2EE7E09E2EFAE04F2E19
:10335000512C612C712C1D9959C16CE271E080E0F7
:1033600090E00E942B0C0E94710C9F938F931F92F0
:103370008CE28F931F930F939F928F928091AB0655
:103380008F938091AA068F930E94A2210E94910C94
:10339000F82E0E94710C1F92FF929F938F931F92A1
:1033A0008DE28F931F930F938CE997E09F938F93F8
:1033B0008091AB068F938091AA068F930E94A221E1
:1033C0006CED75E080E090E00E94C80660E07AE66F
:1033D00088E190E00E942B0C0E94710C9F938F93C8
:1033E0001F9280E38F931F930F9383E697E09F9341
:1033F0008F938091AB068F938091AA068F930E9442
:10340000A2210FB6F894DEBF0FBECDBF62E473E019
:1034100080E090E00E94C8061F9284E38F931F9380
:103420000F9388E497E09F938F938091AB068F93DF
:103430008091AA068F930E94A2210FB6F894DEBF56
:103440000FBECDBF68E2C62ED12CE12CF12C7FE35C
:10345000A72EC701B6010E942B0C98EEC91693E067
:10346000D906E104F104C0F5C701B601A301920138
:103470000E94F41C672B682B692B11F50E94910C9C
:10348000B82E0E94710C1F92BF929F938F93FF9250
:10349000EF92DF92CF921F92AF921F930F9386E12C
:1034A00097E09F938F938091AB068F938091AA06AC
:1034B0008F930E94A2210FB6F894DEBF0FBECDBF3E
:1034C0006AEF70E080E090E00E94C80694E1C90EC7
:1034D000D11CE11CF11CBDCFC701B60128E7C21603
:1034E00026EED206E104F104C8F524E630E040E01F
:1034F00050E00E94F41C672B682B692B19F50E9481
:10350000910CB82E0E94710C1F92BF929F938F93C3
:10351000FF92EF92DF92CF921F9286E48F931F93D8
:103520000F9384EE96E09F938F938091AB068F93D9
:103530008091AA068F930E94A2210FB6F894DEBF55
:103540000FBECDBF6AEF70E080E090E00E94C80639
:1035500094E6C90ED11CE11CF11C7BCF28EE33E0B0
:1035600040E050E00E94F41C672B682B692B19F592
:103570000E94910CB82E0E94710C1F92BF929F93D3
:103580008F93FF92EF92DF92CF921F928CE48F93F2
:103590001F930F9382EB96E09F938F938091AB06DE
:1035A0008F938091AA068F930E94A2210FB6F89460
:1035B000DEBF0FBECDBF6AEF70E080E090E00E94FA
:1035C000C80698EEC90E93E0D91EE11CF11C21E05B
:1035D000C21629E0D2062DE3E206F10408F439CF41
:1035E0001F9285E58F931F930F9382E996E09F9337
:1035F0008F938091AB068F938091AA068F930E9440
:10360000A2210FB6F894DEBF0FBECDBF1C9947C0F4
:103610001F928AE58F931F930F9380E796E09F9305
:103620008F938091AB068F938091AA068F930E940F
:10363000A22181E090E00E94630A0FB6F894DEBFF9
:103640000FBECDBF32E3E32EF12C4FE5B42E52E591
:10365000C52E56E0D52EFF92EF921F92BF921F9378
:103660000F93DF92CF928091AB068F938091AA0641
:103670008F930E94A221C7010E94070C68EE73E09D
:1036800080E090E00E94C80691E0E91AF1080FB6C8
:10369000F894DEBF0FBECDBFE114F104E1F61B9933
:1036A000C7C060E472E48FE090E00E942B0C0E949F
:1036B000710C9F938F931F928CE68F931F930F93A0
:1036C00088E296E09F938F938091AB068F938091D1
:1036D000AA068F930E94A22162E473E080E090E04A
:1036E0000E94C8060FB6F894DEBF0FBECDBF8AE0B9
:1036F000E82EF12C9CEE292E95E0392E2AE7A22EF9
:1037000060E472E48FE090E00E942B0C0E94910C28
:10371000B82E0E94710CD82EC92E0E94760C1F92D2
:10372000BF92CF92DF929F938F937F936F931F925D
:1037300092E79F931F930F933F922F928091AB0636
:103740008F938091AA068F930E94A22162E473E076
:1037500080E090E00E94C80663E270E080E090E0C4
:103760000E942B0C0E94910CB82E0E94710CD82E36
:10377000C92E0E94760C1F92BF92CF92DF929F9328
:103780008F937F936F931F9226E72F931F930F932F
:1037900080EB95E09F938F938091AB068F93809100
:1037A000AA068F930E94A2210FB6F894DEBF0FBE27
:1037B000CDBF62E473E080E090E00E94C80664EC54
:1037C00079E080E090E00E942B0C0E94910CB82ED2
:1037D0000E94710CD82EC92E0E94760C1F92BF92A7
:1037E000CF92DF929F938F937F936F931F92AF92AD
:1037F0001F930F9384E795E09F938F938091AB067F
:103800008F938091AA068F930E94A22162E473E0B5
:1038100080E090E00E94C80681E0E81AF1080FB647
:10382000F894DEBF0FBECDBFE114F10409F068CFFC
:103830001A9991CD0E94760C625371098109910900
:103840006B017C010E942B0C0E94760C1F9224EFCE
:103850002F9324E22F931F929F938F937F936F93C5
:10386000FF92EF92DF92CF921F9286E88F931F9381
:103870000F9380E495E09F938F938091AB068F9395
:103880008091AA068F930E94A22162E473E080E0F7
:1038900090E00E94C8060FB6F894DEBF0FBECDBF01
:1038A0005ACD80E0089580E0089580E0089580E09A
:1038B000089580E0089580E0089580E0089580E014
:1038C000089580E0089580E0089580E0089580E004
:1038D000089580E0089580E0089580E0089580E0F4
:1038E000089580E0089580E0089580E0089580E0E4
:1038F0000895CF93DF93CDB7DEB780E0DF91CF910E
:10390000089580E0089580E00895259A80E895E282
:103910000E94B4122FEF89E698E121508040904038
:10392000E1F700C0000083E60E94271389E60E94A9
:10393000271381E60E9427138FE60E9427138AE04F
:103940000E94271385B190E2892785B9C0E20E94C1
:1039500055130E9427138AE00E94271385B18C27F4
:1039600085B92FEF89E698E1215080409040E1F73A
:1039700000C00000ECCF0E947D1380E090E008952D
:10398000992778E0880F991F961708F0961B881FD3
:103990007A95C9F780950895AA1BBB1B51E107C012
:1039A000AA1FBB1FA617B70710F0A61BB70B881FCF
:1039B000991F5A95A9F780959095BC01CD0108955E
:1039C00097FB072E16F4009407D077FD09D00E94CC
:1039D000CC1C07FC05D03EF4909581959F4F08952F
:1039E000709561957F4F0895A1E21A2EAA1BBB1B0B
:1039F000FD010DC0AA1FBB1FEE1FFF1FA217B307BB
:103A0000E407F50720F0A21BB30BE40BF50B661FD0
:103A1000771F881F991F1A9469F760957095809594
:103A200090959B01AC01BD01CF010895EE0FFF1FE2
:103A30000590F491E02D09945058BB27AA270E94C5
:103A4000341D0C94851E0E94771E38F00E947E1E45
:103A500020F039F49F3F19F426F40C94741E0EF4F0
:103A6000E095E7FB0C946E1EE92F0E94961E58F31A
:103A7000BA17620773078407950720F079F4A6F553
:103A80000C94B81E0EF4E0950B2EBA2FA02D0B014E
:103A9000B90190010C01CA01A0011124FF27591B93
:103AA00099F0593F50F4503E68F11A16F040A22F99
:103AB000232F342F4427585FF3CF4695379527950A
:103AC000A795F0405395C9F77EF41F16BA0B620B09
:103AD000730B840BBAF09150A1F0FF0FBB1F661F50
:103AE000771F881FC2F70EC0BA0F621F731F841F93
:103AF00048F4879577956795B795F7959E3F08F0B9
:103B0000B0CF9395880F08F09927EE0F979587957A
:103B100008950E949D1D0C94851E0E947E1E58F0E3
:103B20000E94771E40F029F45F3F29F00C946E1E2E
:103B300051110C94B91E0C94741E0E94961E68F3C9
:103B40009923B1F3552391F3951B550BBB27AA2756
:103B500062177307840738F09F5F5F4F220F331F90
:103B6000441FAA1FA9F335D00E2E3AF0E0E832D058
:103B700091505040E695001CCAF72BD0FE2F29D05B
:103B8000660F771F881FBB1F261737074807AB072D
:103B9000B0E809F0BB0B802DBF01FF2793585F4FA2
:103BA0003AF09E3F510578F00C946E1E0C94B91EAD
:103BB0005F3FE4F3983ED4F3869577956795B79584
:103BC000F7959F5FC9F7880F911D9695879597F98F
:103BD0000895E1E0660F771F881FBB1F6217730708
:103BE0008407BA0720F0621B730B840BBA0BEE1F1D
:103BF00088F7E09508950E94021E6894B1110C9414
:103C0000B91E08950E949E1E88F09F5798F0B92F04
:103C10009927B751B0F0E1F0660F771F881F991F01
:103C20001AF0BA95C9F714C0B13091F00E94B81ECD
:103C3000B1E008950C94B81E672F782F8827B85FDD
:103C400039F0B93FCCF3869577956795B395D9F759
:103C50003EF490958095709561957F4F8F4F9F4F63
:103C60000895E89409C097FB3EF49095809570956F
:103C700061957F4F8F4F9F4F9923A9F0F92F96E9B8
:103C8000BB279395F695879577956795B795F1112D
:103C9000F8CFFAF4BB0F11F460FF1BC06F5F7F4FCA
:103CA0008F4F9F4F16C0882311F096E911C07723DC
:103CB00021F09EE8872F762F05C0662371F096E8E5
:103CC000862F70E060E02AF09A95660F771F881FB4
:103CD000DAF7880F9695879597F9089597F99F6772
:103CE00080E870E060E008959FEF80EC0895002484
:103CF0000A941616170618060906089500240A9451
:103D000012161306140605060895092E0394000CD6
:103D100011F4882352F0BB0F40F4BF2B11F460FF65
:103D200004C06F5F7F4F8F4F9F4F089557FD90588E
:103D3000440F551F59F05F3F71F04795880F97FB6F
:103D4000991F61F09F3F79F0879508951216130629
:103D50001406551FF2CF4695F1DF08C01616170658
:103D60001806991FF1CF869571056105089408958D
:103D7000E894BB2766277727CB0197F908950E941F
:103D8000D21E0C94851E0E94771E38F00E947E1E63
:103D900020F0952311F00C946E1E0C94741E1124C7
:103DA0000C94B91E0E94961E70F3959FC1F3950F57
:103DB00050E0551F629FF001729FBB27F00DB11DAF
:103DC000639FAA27F00DB11DAA1F649F6627B00D3F
:103DD000A11D661F829F2227B00DA11D621F739F28
:103DE000B00DA11D621F839FA00D611D221F749F36
:103DF0003327A00D611D231F849F600D211D822F7D
:103E0000762F6A2F11249F5750409AF0F1F08823A3
:103E10004AF0EE0FFF1FBB1F661F771F881F9150D0
:103E20005040A9F79E3F510580F00C946E1E0C94F3
:103E3000B91E5F3FE4F3983ED4F386957795679576
:103E4000B795F795E7959F5FC1F7FE2B880F911DFA
:103E50009695879597F908950F931F93CF93DF93C6
:103E60009C01029710F422E030E0E091A406F0916A
:103E7000A50680E090E0A0E0B0E0309791F40097D4
:103E800009F448C0821B930B84309105D0F58A81D8
:103E90009B816115710581F1FB0193838283FE0192
:103EA00011C0408151810281138142175307D8F01C
:103EB0004217530799F4109761F012960C931297DA
:103EC00013961C933296CF01DF91CF911F910F91E2
:103ED00008950093A4061093A506F4CF009751F01F
:103EE0004817590738F0AC01DB01CA01BD01DF01F9
:103EF000F801C3CFEF01F9CF9093A5068093A406F4
:103F0000CECFFE01E80FF91F2193319302979983D9
:103F10008883D9CF4091A6065091A7064115510537
:103F200041F440912A0150912B015093A7064093F0
:103F3000A6068091280190912901009741F48DB740
:103F40009EB760912C0170912D01861B970B48172D
:103F5000590708F0B8CF841B950B8217930708F414
:103F6000B2CFB9016E5F7F4F8617970708F4ABCFCA
:103F7000640F751F7093A7066093A606FA0121933C
:103F80003193A1CFCF93DF939C010097E9F0FC011F
:103F9000329713821282C091A406D091A506DE0149
:103FA00080E090E02097A1F480819181280F391F53
:103FB0008091A6069091A7068217930709F068C022
:103FC000F093A706E093A606DF91CF910895DA015A
:103FD000AE17BF0708F042C012964D915C9113973F
:103FE000CD014115510599F7DC011396FC93EE9331
:103FF00012974D915D919D01240F351FE217F30734
:1040000081F4208131812E5F3F4F240F351FDC0169
:1040100011963C932E932281338113963C932E93D9
:104020001297E0E0F0E08A819B810097B1F5DE0114
:104030008D919D918A0F9B1F2091A6063091A70616
:104040002817390709F6309759F51092A5061092EE
:10405000A406D093A706C093A606B6CFB383A283C7
:1040600040815181240F351FA217B30771F44E5FB1
:104070005F4F2D913C911197240F351F3183208381
:1040800012962D913C9133832283009709F0ACCF97
:10409000F093A506E093A40697CFFE01EC01C3CFF1
:1040A00013821282D6CFA0E0B0E0E9E5F0E20C94F2
:1040B000D724EC016B018A016115710519F0FB0130
:1040C000918380830115110529F0C8010297839718
:1040D00008F0DEC05E012196F501E0808E2D90E0B3
:1040E0000E946821892BB1F7FDE2EF1216C0E9901A
:1040F000FF24F394C8018F7E892BB9F480E3E81282
:10410000CCC088818F7D883509F0CCC0E9802296AB
:10411000EF2DE26000E110E061C02BE2E21203C08B
:10412000E880E5012296F12CE5CF0830110509F46D
:104130005BC00CF04BC0EF2D812C912CA12C30E4F6
:10414000B32E0230110571F060E070E080E090E87D
:104150009801012E000C440B550B0E94F41C4901E0
:104160005A01EF2D20E060E070E0CB012801012E24
:10417000000C66087708F0EDFE0DFA3058F03FEBC2
:104180003E0DF9EC3A3128F03FE93E0D3A31E8F5C1
:10419000F9EAFE0DF0171106C4F52F3FA9F08616B7
:1041A0009706A806B90678F0A30192010E94BA24E6
:1041B0006F0F711D811D911D21E061307105810519
:1041C000F0E89F0708F02FEFE990D5CFEF2D0A30E8
:1041D0001105A1F00031110509F0B6CF812C912C09
:1041E000A12C88E0B82EBECFEF2D812C912CA12CD4
:1041F00090E1B92EB7CFEF2D0AE010E02CEC822E23
:10420000982CA82C2CE0B22EADCFC114D10431F0E3
:10421000211509F12197F601D183C0832F3F09F5BC
:104220008F2D90E0A0E0B0E0BC01CD01615071099C
:104230008109904822E230E03093AF062093AE0629
:10424000462F372F282F642F732F822FCDB7DEB73D
:10425000E0E10C94F324E1FF04C02297F601D1833E
:10426000C083F11441F090958095709561957F4FD2
:104270008F4F9F4FE5CF97FFE3CF82E290E090937F
:10428000AF068093AE066FEF7FEF8FEF9FE7D8CF3B
:1042900040E030E020E090E0D6CF012B09F4ABCF36
:1042A000EF2D38CF012BE1F7EF2D08E010E09DCF87
:1042B00081E090E0F8940C941B2585FD0C94D423A8
:1042C000806291110C94D42381568A51D8F70895B5
:1042D00091110C94D423803219F089508550C8F77D
:1042E0000895A0E0B0E0E7E7F1E20C94DF24D82FD6
:1042F000C92F6B017A01FA01238120FD07C080E0FC
:1043000090E0CDB7DEB7E8E00C94FB241616170654
:10431000B4F7082F192F81E0C816D10471F0C70136
:104320000E94ED238F3F980751F3F80181938F018D
:10433000F1E0CF1AD1080A9771F7F80110828D2F9A
:104340009C2FDFCFA0E0B0E0E8EAF1E20C94E32498
:104350000F811885F801838188608383AE01455FF2
:104360005F4F69857A85C8010E94E9219C01F801A7
:104370009381977F9383C901E4E00C94FF24EF922B
:10438000FF920F931F93CF93DF938B01DB01139663
:104390002C91E12CF12C21FD12C0EE24EA94FF2493
:1043A000FA9411C0D8011896ED91FC91B8010995C5
:1043B000892B21F0EE24EA94FF24FA94CE01EC013B
:1043C00089918111EFCFC701CDB7DEB7E6E00C943C
:1043D000FD24ABE0B0E0EFEEF1E20C94D8246C01E8
:1043E0007B018A01FC0117821682838181FFD9C17A
:1043F0009AE0592EF6012381F70123FD859123FFD1
:1044000081917F01811509F41FC1853239F423FDA3
:10441000959123FF91917F01953229F4B60190E0A7
:104420000E942C24E7CF30E0912C612C712CF0E21B
:104430007F1640F59B32D9F058F49032D1F0933288
:10444000F1F09E3299F576FCFFC0689476F806C0CC
:104450009D3291F09033C1F4689470F8F70123FD18
:10446000959123FF91917F019111E1CF29C068942B
:1044700071F8689472F8F2CF689473F8EFCF68948B
:1044800074F8ECCF77FC1CC080ED890F8A30C8F639
:1044900076FE05C0959C800D1124982EDFCF659C7B
:1044A000800D1124682E689475F8D8CF9C3619F4C5
:1044B000689477F8D3CF9C3409F44BC0983671F2E6
:1044C000892F8F7D8554833008F445C0933609F4D5
:1044D00066C0933709F469C0933509F475C0943602
:1044E00019F0993609F09FC0F80177FE95C06191E7
:1044F0007191819191918F01272D2F76822E97FFB7
:1045000009C090958095709561957F4F8F4F9F4F13
:10451000689487F82AE030E0AE014F5F5F4F5A01A0
:104520000E945C248A19A82E86FEC4C0882D8E7F26
:10453000A91408F0BEC084FE11C182FC05C1F82D8B
:10454000FE7E8F2EB92C882D8678811509F4BFC088
:1045500000C131E083CF3115F9F0085F1F4F8FE3C1
:10456000898388248394912CAE014F5F5F4F5A0159
:10457000E89477F873FC03C086149104B0F18114B9
:104580009104D1F5611409F435CFB60180E290E0D1
:104590000E942C246A94F6CF0C5F1F4FE0CFF801E5
:1045A000808189830E5F1F4FDCCFF801A190B1900D
:1045B0008F01692D70E076FC02C06FEF7FEFC501BF
:1045C0000E94E2234C01D4CFF801A190B1908F0159
:1045D000692D70E076FC02C06FEF7FEFC5010E948D
:1045E000D7234C01689477F8C5CFB60180E290E0FC
:1045F0000E942C246A94C0CFF50177FC859177FE48
:1046000081915F01B60190E00E942C2461106A94B0
:10461000F1E08F1A9108B3CF61917191072E000CD0
:10462000880B990B68CF872CE89484F82AE030E057
:10463000953739F1572D597F852E903799F058F4D9
:104640009835A9F09F36D9F0F601868197812B968F
:10465000EFE00C94F4249837B9F774FC05C020E11E
:1046600030E00FC0689484F8689482F8F8CF74FE44
:1046700003C0872D8660882E20E132E002C028E04A
:1046800030E0F80187FE10C06191719181919191A4
:104690008F01FE0131965F01AF010E945C248A19EF
:1046A000A82EE89487F840CF6191719180E090E066
:1046B000EFCF882EBA2C84FE46CFFE01EA0DF11D05
:1046C0008081803309F043C0282D297E822E83FC0F
:1046D0000EC080FE4FC09A2CB61418F4960C9B188E
:1046E000B62C862D8B196B1408F480E0B80EB61426
:1046F00008F042C06B1884FE41C0B60180E390E030
:104700000E942C2482FE09C088E590E081FC02C052
:1047100088E790E0B6010E942C24A914D8F1AA944D
:10472000B12C4FEFA41AB40ACE0101964C01A80E89
:10473000B91EF50182915F01B60190E00E942C2420
:104740008A149B04B1F71ECFB92C882EB6CF82FCF9
:1047500002C0B394BCCFB394B394B9CFB92C882E14
:10476000F2CEB60180E290E00E942C24739476147D
:10477000C0F3B7CF7B2CFBCF612CBDCF882D8678C3
:10478000811559F280E281FC8BE287FC8DE2B60153
:1047900090E0C1CFB60180E390E00E942C249A946F
:1047A000BCCF8FEF9FEF53CF992788270895FC0147
:1047B0000590615070400110D8F7809590958E0F4C
:1047C0009F1F0895FC016150704001900110D8F7BF
:1047D000809590958E0F9F1F0895CF93DF93EC01E6
:1047E0008B8180FF1BC086FF0CC08F7B8B838E81EB
:1047F0009F8101969F838E838A8190E0DF91CF9184
:10480000089582FF19C0E881F9819081292F092E2E
:10481000000C330B911105C080628B838FEF9FEFEB
:10482000EDCF3196F983E8838E819F8101969F8336
:104830008E83C9019927E2CFEA85FB85CE010995D0
:104840009C0197FFF1CF8B812F3F3F4F19F490E1EF
:10485000892BE3CF90E2FCCF0F931F93CF93DF938D
:10486000182F092FEB018B8181FD09C01FEF0FEF7E
:10487000812F902FDF91CF911F910F91089582FF8B
:1048800014C02E813F818C819D81281739073CF40B
:10489000E881F981CF0101969983888310838E8105
:1048A0009F8101969F838E83E3CFE885F985812FD1
:1048B0000995892BA1F3DACFFA01AA27283051F103
:1048C000203181F1E8946F936E7F6E5F7F4F8F4F41
:1048D0009F4FAF4FB1E03ED0B4E03CD0670F781FA0
:1048E000891F9A1FA11D680F791F8A1F911DA11D85
:1048F0006A0F711D811D911DA11D20D009F46894BE
:104900003F912AE0269F11243019305D3193DEF665
:10491000CF010895462F4770405D4193B3E00FD01B
:10492000C9F7F6CF462F4F70405D4A3318F0495D06
:1049300031FD4052419302D0A9F7EACFB4E0A695E9
:104940009795879577956795BA95C9F7009761050B
:10495000710508959B01AC010A2E06945795479561
:1049600037952795BA95C9F7620F731F841F951F56
:10497000A01D0895DB018F939F930E94CA24BF91CD
:10498000AF91A29F800D911DA39F900DB29F900D9E
:10499000112408950E940C25A59F900DB49F900DA1
:1049A000A49F800D911D112408952F923F924F9244
:1049B0005F926F927F928F929F92AF92BF92CF92AF
:1049C000DF92EF92FF920F931F93CF93DF93CDB7B8
:1049D000DEB7CA1BDB0B0FB6F894DEBF0FBECDBF30
:1049E00009942A88398848885F846E847D848C8401
:1049F0009B84AA84B984C884DF80EE80FD800C810A
:104A00001B81AA81B981CE0FD11D0FB6F894DEBFEC
:104A10000FBECDBFED010895A29FB001B39FC001AD
:104A2000A39F700D811D1124911DB29F700D811DDA
:104A30001124911D0895F894FFCF2A0535053D05F1
:0C4A40005A0578059505EB050A062406CA
:104A4C0005010008004000000100040701000800F7
:104A5C002000400080000001000400000003000062
:104A6C0000005013761300000000B00620006F14F5
:104A7C0074140A0C141121220074657374732F546E
:104A8C00696D652F746573745F74696D652E6370E1
:104A9C00700074657374732F636F6D756E696361E9
:104AAC00746F722F746573745F6C6F676765722EA9
:104ABC0063707000436F6D756E696361746F722003
:104ACC0072656164792C2077616974696E67206600
:104ADC006F722061206220636F6D6D616E642E2E8B
:104AEC002E0074657374732F636F6D756E696361DB
:104AFC00746F722F746573745F636F6D756E696319
:104B0C0061746F722E6370700074657374732F61AF
:104B1C0076722F54696D6572732F746573745F614F
:104B2C00767254696D6572322E63707000746573A1
:104B3C0074732F6176722F54696D6572732F74655F
:104B4C0073745F61767254696D6572302E63707028
:024B5C00000057
:00000001FF
